:020000040800F2
:10000000580D00209D010008A5010008D52E00080C
:10001000A9010008AB010008AD01000800000000C4
:10002000000000000000000000000000AF01000818
:10003000B101000800000000B3010008155A0008D3
:10004000B7010008B7010008B7010008B7010008B0
:10005000B7010008B7010008B7010008B7010008A0
:10006000B7010008B7010008B7010008B701000890
:10007000B7010008B7010008B7010008B701000880
:10008000B7010008B7010008FF020008B701000827
:10009000B7010008B7010008B7010008B701000860
:1000A000A55A0008E95A0008B7010008B70100087E
:1000B000015B00080000000000000000B70100081C
:1000C000B7010008B7010008B701000800000000F0
:1000D000B7010008B7010008DD6A0008B701000891
:1000E0005D040008B7010008B70100080000000027
:1000F0000000000000000000000000000000000000
:10010000000000000000000000000000B70100082F
:100110000000000000000000B7010008000000001F
:1001200000000000000000000000000000000000CF
:1001300000000000000000000000000000000000BF
:10014000B7010008B701000800000000000000002F
:10015000000000000000000000000000000000009F
:10016000B7010008B7010008B7010008B70100088F
:10017000B7010008000000000000000000000000BF
:1001800000000000B7010008DFF80CD000F07AF89A
:10019000004800476D6B0008580D00200648804756
:1001A00006480047FEE7FEE7FEE7FEE7FEE7FEE75C
:1001B000FEE7FEE7FEE7FEE73D5A0008890100087A
:1001C0002DE9F05F0546002092469B46884606468C
:1001D000814640241BE0284641464746224600F01F
:1001E00020F853465A46C01A914110D3114618467A
:1001F000224600F038F82D1A67EB01084F462246D8
:100200000120002100F02FF817EB00094E41201EBD
:10021000A4F10104DFDC484631462A464346BDE8E6
:10022000F09F202A04DB203A21FA02F000217047D7
:1002300021FA02F3D040C2F120029140084319464E
:100240007047D2B201E000F8012B491EFBD2704783
:100250000022F6E710B513460A4604461946FFF792
:10026000F0FF204610BD202A04DB203A00FA02F1FC
:10027000002070479140C2F1200320FA03F3194394
:1002800090407047064C074D06E0E06840F00103DF
:1002900094E8070098471034AC42F6D3FFF778FF94
:1002A00088730008A873000870B58C1810F8015BFB
:1002B00015F0070301D110F8013B2A1106D110F8FF
:1002C000012B03E010F8016B01F8016B5B1EF9D103
:1002D0002B0705D40023521E0DD401F8013BFAE789
:1002E00010F8013BCB1A921C03E013F8015B01F8F4
:1002F000015B521EF9D5A142D8D3002070BD10B5C4
:100300004FF0A0414020086005F048FDBDE81040D6
:1003100006F062B870B504460068816801F0030118
:1003200001292BD1016811F0010F27D0816801F05C
:100330000D01012913D1816841F00201816021681A
:100340000320086001F0F4FA05462068806810F088
:10035000010F13D001F0ECFA401B022809D9206CE0
:1003600040F010002064606C40F0010060640120E7
:1003700070BD2068806810F0010FEBD1002070BDC7
:1003800010B4024608460FFA81FC1CFB0CF40B1457
:1003900013FB0341148864438C4224BF10BC704794
:1003A00092F8B040C4EB1161C9B202EB41014A8836
:1003B00010BC0CFB02F14FEAE17C01EB5C41C9137C
:1003C00061F30F0003FB02F1CA1701EB5241C9139D
:1003D00061F31F4070470000C18E012918BF7047AC
:1003E00010B590F830100D4C06F05AF8E11301FAF0
:1003F00080F14FF4700292FAA2F24FF48010B2FA38
:1004000082F2D04004EB800082686FF30F12114338
:100410008160606840F00100606010BD00740040C1
:10042000084490F83000704700EB4100B0F932000A
:1004300070470000C08E012818BF7047024801684D
:1004400041F001010160704700740040084480F8E9
:100450003020704700EB41004286704702494FF45C
:100460000050086006F0D8B91404014070B40021AF
:1004700038B346780178731E3144002B18DD421CD6
:1004800016F0010F02D112F801CF614454784FF0F9
:10049000000C5B100AD000BF12F8025F21445478B0
:1004A000AC4489B21FFA8CFC5B1EF5D1614489B261
:1004B000721E03D410448078084481B201EB1120ED
:1004C000C1B270BC08467047002141820175417578
:1004D00080F8961080F8971080F8981080F899109E
:1004E00080F89A1080F81B1180F81C1180F81D11FB
:1004F0007047DDF800C0002818BF80E80E10704774
:1005000010B5044600EB440000EB04121248002131
:1005100000EB4202114811605160D1601161D1833A
:10052000C2F81610C2F81A10118450F8240003F013
:10053000C9FC0B48002150F8240003F0C3FC094813
:1005400050F8240005F027F9074850F82400BDE8CA
:10055000104003F023BE0000C40700201406002052
:10056000180600200C0600202406002070B50D4659
:100570000446B0F96C1090F84030426A0020002B1D
:1005800046D0926AB4F884309A4224BFE080288032
:1005900038D2E1800A0034D0A1F5FE43FF3B08BF0A
:1005A000B4F886002DD0B4F87E20A4F880202388EB
:1005B000D21A12B2A4F87C20B4F8983092FBF3F26D
:1005C000A4F8822094F87720012A0ED194F84430C0
:1005D000227F934238BFA4F8781004D3216F91FB97
:1005E000F2F1A4F8781084F87700B4F97800288044
:1005F000A18A484300EB8000E17A4000090490FBA7
:10060000F1F028802946204605F067F8014604E00D
:10061000227CA272E080002128802888A0800846E1
:1006200070BDB0F90610B0F90020A1F5FE43FF3B04
:1006300011D0B0F87E300B44A0F87E30B0F8803096
:100640000B44A0F88030B0F882300B441A4402808A
:10065000A0F8741003E0B0F8741011440180B0F9F0
:1006600000007047426AD16821F00201D160002188
:1006700080F8411080F84210012380F84030018159
:1006800080F8431080F8441080F84510A0F88210DC
:10069000016780F8763080F86A1080F87710B0F83B
:1006A000843093625162116841F001011160D16898
:1006B00041F00201D16000F08FB8000070B4C2892F
:1006C000C37AB0F80CC05A430CFB03F39BB24FF64D
:1006D000FF7C0CEA430C036A1204416A4FEA13449C
:1006E000920CA0F8964008BF962206D002EB420278
:1006F000520042F21075B5FBF2F2A0F8942092B2CB
:1007000062434FF47A7492FBF4F292B2A0F8842020
:100710001404C0F88C402F4CA0F886C0A4FB0365DD
:1007200003EB83035B00A4FB0343AE08858A9B08AD
:10073000B6FBF5F6B3FBFCF33604C0F88860C0F8EE
:100740009030438BB5FBF3F35B1EA0F89830012388
:1007500080F840308A624A6942F001024A61002210
:100760000A610B6843F004030B60CB6843F002039B
:10077000CB60CB6843F00103CB604A620B6A43F065
:1007800001030B620B6843F001030B60037F002B36
:1007900004BF70BC70474FF0000C13F001011CBF88
:1007A000A0F846204FF0010C9942A4BF70BC7047DE
:1007B00000EB4C040CF1010CA4F8462000EB4C04B7
:1007C000891CA4F846200CF1010C9942F0DB70BCA6
:1007D00070470000ABAAAAAA70B4D0E90A31D0E9E8
:1007E0000D42867DD0F83CC0056BA6B12D69AC43A7
:1007F0000CBF0124002484F001041269A4003CEA27
:1008000002020CBF0122002244EA42021B69994302
:1008100016D0002115E012693CEA020214BF002242
:1008200001229200D5F810C034EA0C0C0CBF4FF036
:10083000010C4FF0000C42EA4C021B699943E8D1CD
:100840000121114380F87A10C9B2072926D2DFE8C6
:1008500001F0250A151020041B00018B41F25552AE
:10086000114401801DE0018B43F6FF7211440180A9
:1008700017E0018B46F6AA22114403E0018BA1F593
:10088000D441AA3901800CE0018BA1F57C51FF39DC
:10089000F8E7018BA1F5A8515539F3E7002180F85D
:1008A00040100188A0F87E1070BC70472DE9F0035D
:1008B00090F84010426A002900F05C81837D90F836
:1008C0007A10002B3BD0D0E90C43D0E90A65D0E97F
:1008D0000EC72469A3430CBF0123002383F0010347
:1008E000DCF810C09B0037EA0C0C0CBF4FF0010C79
:1008F0004FF0000C43EA4C03D6F810C035EA0C0C5C
:100900000CBF4FF0010C4FF0000C43EA0C0300BF8A
:1009100080F87A3003F0FF084FF0FF34660C0123B3
:1009200042F6AA2545F255574FF0000CB8F1070FD3
:1009300075D2DFE808F0863250417523610000F17E
:100940002C03846A93E8E8103F693CEA070C14BF63
:100950004FF0000C4FF0010C4FEA8C0C2D6936EA79
:1009600005050CBF012500254CEA450C2469A3436D
:100970000CBF012300234CEA0303C9E7042908BF85
:1009800080F876305BD001295DD180F87640018B0C
:1009900001EB0501A0F87E1055E0052902D00329DE
:1009A00005D050E080F87630018B2944F2E780F8DA
:1009B0007640018B3944EDE7012902D0022905D0A8
:1009C00041E080F87630018B3944E3E780F87640E7
:1009D000018B3144DEE7032902D0062905D032E03D
:1009E00080F87630018B3144D4E780F87640018B73
:1009F000A1F5AA415539CDE7022902D0042907D033
:100A000021E080F87630018BA1F5AA415539C1E784
:100A100080F87640018BA1F52851AA39BAE710E099
:100A2000062905D0052908BF80F8764007D00AE0DE
:100A300080F87630018BA1F52851AA39AAE7018BFD
:100A4000A8E780F840C090F84310F9B190F844103E
:100A5000047FA14204D290F84410491C80F844104D
:100A6000516B8CB2916A90F8455089B290F84570FC
:100A700004EB0545E7B1491C89B290F8424069434F
:100A8000002C18BF80F842C007D027E090F8431030
:100A9000491C80F84310506B6CE0946AB0F88450A5
:100AA000AC421BD2946A641C946280F8423015E018
:100AB00090F841702FB1891C89B2694380F841C018
:100AC0000CE0491C89B26943B4F5AA4F06D2946A76
:100AD00024B1946A641E946280F84130D0F890206A
:100AE0008A4284BFA0F86C6080F877C040D890F844
:100AF0006A40026F00EB4404B4F94640121B0267DF
:100B0000D0F88C20914206D390F86A1000EB410196
:100B1000A1F846C017E0D0F88820B2FBF1F190F8B8
:100B20006A2000EB4202A2F8461090F86A2090F981
:100B3000764000EB420211FB04F109B2A2F8461024
:100B4000026F1144016790F86A1000EB4101B1F89F
:100B50004610A0F86C1090F86A10491CC9B280F8D1
:100B60006A10027F914208BF80F86AC080F877302F
:100B700080F845C0BDE8F0030020704770B504461A
:100B8000416A90F8400000283ED094F84500401C8F
:100B900084F84500886A4FF47A71401C4843B4F8E1
:100BA0009410B4F896205143B1FBF0F094F845103E
:100BB00080B2814228D30025E5802046FFF70CFE55
:100BC00084F84550207FB8B1002110F001001CBF0F
:100BD000A4F846500121227F82420DDD04EB410240
:100BE000491CA2F8465004EB4102801CA2F8465072
:100BF000227F491C8242F1DC84F84450A4F86C50F6
:100C0000012084F86A002567002070BD2DE9F001FD
:100C100099B00023029390F83C201C46012A01BFA2
:100C2000022019B0BDE8F0017047012780F83C7040
:100C30000269DFF830C4002A1CBF8A69012A02D089
:100C4000C56CF5B12BE04A68012A05D0026C42F070
:100C50002002026401233DE00A6A012A04BF0A68F7
:100C6000120204D04D6A2A430D6842EA0522056843
:100C7000EE6C06EA0C0C4CEA020CC5F84CC082641F
:100C800028E0C0E912420A6A012A04BF8A69521E9A
:100C900004D08E694D6A761E35432A4382640A79F0
:100CA000856C02EB4206022202EB46021F269640AA
:100CB000B5430E6806FA02F215438564C26C521EF3
:100CC000C26407D10268D66C06EA0C0C4CEA050C2B
:100CD000C2F84CC00268D2F808C01CF0080F25D139
:100CE00091F81DC0BCF1000F0CD0D2F80CC08D7F64
:100CF0002CF4401C4CEA455CC2F80CC00A7F012A67
:100D00000FD013E091F81EC00D7F4FEA4C5C4CEA07
:100D1000055CD56825F440154CEA050CC2F80CC0FA
:100D200004E0026C42F02002026401230268D2F85F
:100D300008C04FF007051CF00C0F7DD1D1F820C082
:100D4000BCF1010FD2F80CC02CF0007C05D0C2F829
:100D50000CC04A7F012A06D00AE04E7F4CEA466C5E
:100D6000C2F80CC004E0026C42F0200202640123CD
:100D70000A68D0F800C00A2A10D3DCF818600A3AD2
:100D800002EB420205FA02F826EA0806D1F80880CA
:100D900008FA02F23243CCF818200EE0DCF81460B6
:100DA00002EB420205FA02F826EA0806D1F80880AA
:100DB00008FA02F23243CCF814200268D1F814C0C9
:100DC000D668D1F81080C6F3C10676000CFA06FC8E
:100DD000A54EB8F1010F50D0B8F1020F5CD0B8F1B8
:100DE000030F68D0B8F1040F75D0D2F860C00E7848
:100DF0000CF0F84CBCEB866F05D1D2F860C02CF03B
:100E0000004CC2F860C00268D2F864C00E780CF0E2
:100E1000F84CBCEB866F05D1D2F864C02CF0004CC6
:100E2000C2F864C00268D2F868C00E780CF0F84CC2
:100E3000BCEB866F07D100E016E0D2F868C02CF05A
:100E4000004CC2F868C00268D2F86CC00E780CF092
:100E5000F84CBCEB866F04BFD2F86CC02CF0004C91
:100E600002D100BFC2F86CC00268D2F808C00CF012
:100E7000030CBCF1010F40D13AE0D2F8608008EADF
:100E8000060691F800804CEA886C46EA0C0C4CF09F
:100E9000004CC2F860C0E7E7D2F8648008EA0606B2
:100EA00091F800804CEA886C46EA0C0C4CF0004C3F
:100EB000C2F864C0D8E7D2F8688008EA060691F85C
:100EC00000804CEA886C46EA0C0C4CF0004CC2F8EE
:100ED00068C0C9E7FFE7D2F86C8008EA060691F817
:100EE00000804CEA886C46EA0C0C4CF0004CB9E7E8
:100EF000D2F800C01CF0010F63D1D1F80CC0BCF1D6
:100F0000010FD2F8B0C007D00D7807FA05F52CEA2A
:100F1000050CC2F8B0C028E00E7807FA06F64CEAD5
:100F2000060CC2F8B0C00A68D0F800C00A2A0ED376
:100F3000DCF81860093A02EB4202954026EA050502
:100F40008E6806FA02F22A43CCF818200DE0DCF88D
:100F50001460521C02EB4202954026EA05058E6899
:100F600006FA02F22A43CCF8142009683F4A1029F5
:100F700009D011290DD0122904BFD2F808C01CF4E1
:100F8000800F0BD01DE0D2F808C01CF4000F18D160
:100F900004E0D2F808C01CF0807F12D10494D0F88D
:100FA00000C0DCF8085005F00305012D10D1DCF875
:100FB000005015F0010F0BD0016C41F020010164CD
:100FC000012380F83C4019B01846BDE8F001704795
:100FD000102909D0112937D0122904BF916841F492
:100FE0008001EED19160ECE7BCF1A04FE9D19168AE
:100FF00041F4000191601E491E4A0968B1FBF2F1FB
:1010000001EB8101490002910091DAD0B1F1004F6A
:1010100022D20029D8BF002105DD11F0010102D044
:10102000029A521E0292009A491C521C9142C8DA3E
:10103000DDF808C0891CACF1010CACF1010CCDF855
:1010400008C09142F4DBBCE7BCF1A04F04BF91683B
:1010500041F08071B5D1C5E70299491E0291FCD1DA
:10106000AFE700000020088200F0FF83000300507B
:101070005C06002040420F002DE9F00199B04FF0CE
:10108000000CCDF808C090F83C206446012A01BF4E
:10109000022019B0BDE8F0017047012780F83C70CC
:1010A0000268936813F0040F40F038814B681F25E5
:1010B000052B0CD2166B03EB43035B009D4026EA25
:1010C00005050E6806FA03F32B4313632CE00A2B85
:1010D0000DD2566B5B1F03EB43035B009D4026EA7A
:1010E00005050E6806FA03F32B4353631CE00F2B30
:1010F0000DD2966B0A3B03EB43035B009D4026EA4F
:1011000005050E6806FA03F32B4393630CE0D66BD8
:101110000F3B03EB43035B009D4026EA05050E6889
:1011200006FA03F32B43D363026893684FF0070575
:1011300013F00C0F64D10B680A2B0ED396690A3B8F
:1011400003EB430305FA03F826EA0806D1F8088002
:1011500008FA03F3334393610CE0566903EB43034E
:1011600005FA03F826EA0806D1F8088008FA03F31E
:101170003343536102684B69D668D1F81080C6F3D7
:10118000C1067600B3408E4EB8F1010F3FD0B8F1E2
:10119000020F49D0B8F1030F53D0B8F1040F5DD05E
:1011A000136E0E7803F0F843B3EB866F03D1136E22
:1011B00023F0004313660268536E0E7803F0F84381
:1011C000B3EB866F03D1536E23F00043536602687E
:1011D000936E0E7803F0F843B3EB866F03D1936EF2
:1011E00023F0004393660268D36E0E7803F0F84351
:1011F000B3EB866F04BFD36E23F0004300D1D366F8
:101200000268936803F00303012B37D132E0D2F870
:10121000608008EA060691F8008043EA8863334359
:1012200043F000431366EBE7D2F8648008EA060651
:1012300091F8008043EA8863334343F000435366E8
:10124000DEE7D2F8688008EA060691F8008043EAF3
:101250008863334343F000439366D1E7D2F86C8050
:1012600008EA060691F8008043EA8863334343F0B6
:101270000043C4E7136813F0010F55D1CB68012B6D
:10128000D2F8B03006D00D7807FA05F5AB43C2F8B6
:10129000B03022E00E7807FA06F63343C2F8B030D9
:1012A0000A6803680A2A0CD39E69093A02EB4202D3
:1012B000954026EA05058E6806FA02F22A439A61ED
:1012C0000BE05E69521C02EB4202954026EA0505DE
:1012D0008E6806FA02F22A435A610968394A1029CF
:1012E00008D011290BD0122904BF936813F4800F82
:1012F00009D019E0936813F4000F15D103E0936847
:1013000013F0807F10D1049403689D6805F00305F5
:10131000012D10D11D6815F0010F0CD0016C41F0AA
:10132000200101644FF0010C80F83C4019B0604688
:10133000BDE8F0017047102909D0112933D01229D6
:1013400004BF916841F48001EED19160ECE7B3F104
:10135000A04FE9D1916841F4000191601A491B4AFC
:101360000968B1FBF2F101EB8101490002910091A2
:10137000DAD0B1F1004F1ED20029D8BF002105DD1F
:1013800011F0010102D0029A521E0292009A491CE9
:10139000521C9142C8DA029B891C5B1E5B1E0293A1
:1013A0009142F8DBC0E7B3F1A04F04BF916841F070
:1013B0008071B9D1C9E70299491E0291FCD1B3E706
:1013C00000F0FF83000300505C06002040420F0045
:1013D00070B598B04FF0000504002E46029502BF8C
:1013E000012018B070BD206C10F0100F61D1206C7E
:1013F00000284AD16664E664A66484F83C6020460E
:1014000000F0E8F82068806810F0805F3DD1204649
:10141000FEF780FF0546206C00F0100151EA050040
:1014200033D1206C20F4885040F002002064206802
:10143000816821F0405181602068816841F08051CD
:1014400081605F485F490068B0FBF1F000EB80000D
:1014500040000290009018D0B0F1004F7CD20028DC
:10146000D8BF002005DD10F0010002D00299491E0E
:1014700002910099401C491C884206DA029A801C9D
:10148000521E521E02928842F8DB2068816811F0D9
:10149000805F03D0806810F0005F0AD0206C20F0DD
:1014A000020040F010002064606C40F001006064B5
:1014B0000125206C00F01000284304D120688168C9
:1014C00011F0040F09D0206C20F0020040F0100051
:1014D0002064012518B0284670BD216C21F480716C
:1014E00041F00201216404963749826802F0030248
:1014F000012A03D1006810F0010F05D188686268E5
:1015000020F4403010438860D4E902100843616B36
:10151000012914BF4FF480520022617E42EA413219
:10152000104394F82020012A0AD1B1B1216C21F096
:10153000020141F020012164616C41F0010161640C
:10154000A16A012902D0E26A1143084321688A682E
:1015500012F00C0F16D108E02DE0A18C1B4A02EB13
:101560004141084340F48030EAE7CA6822F00202B1
:1015700022F48042CA60217E94F83020890341EA37
:10158000420108432168CA68114B1A401043C860E1
:10159000206901282068016B21F00F0102D1E26966
:1015A000521E114301636664206C20F0020040F07B
:1015B000010020648EE70298401E0290FCD164E78F
:1015C0005C06002040420F00000300500000FEFFB8
:1015D00007C0F0FF30B587B0002400940194029456
:1015E000039404940068B0F1A04F1CBF07B030BD55
:1015F0001548416941F080514161416901F08051D4
:101600000591416941F400214161416901F40021E2
:101610000591416941F4003141614069032500F4BD
:10162000003005900720CDE900056946074800F025
:1016300079F80095CDE9015469464FF0904000F0EB
:1016400071F807B030BD00000010024000080048EB
:101650004379012B04BF0220704730B44FF0010CD6
:1016600080F805C00223037103681C6840F6FE750C
:101670009540AC43D1E90051294391402143196081
:1016800001680B68C02404FA02F223EA02020A602D
:1016900080F804C00021417130BC08467047002822
:1016A00004BF0120704770B504460079002518B9C1
:1016B0006571204600F008F80220207125610120A4
:1016C0002071002070BD000000B587B0002100919E
:1016D00001910291039104910068A0F18041B1F55C
:1016E000E8411CBF07B000BD0D48C16941F0005181
:1016F000C161C16901F000510591416941F40031B6
:1017000041614069694600F4003005901020009066
:10171000032001904FF0904000F004F807B000BDA6
:10172000001002400B680022002B08BF70472DE913
:10173000F84F774EDFF8DCE101274FF0030A4FF056
:101740000F0800BF0B6807FA02F52B407ED0D1F8D6
:1017500004C0BCF1020F18BFBCF1120F15D14FEA43
:10176000D20C00EB8C04D4F820904FEA427C4FEA74
:10177000DC6C08FA0CFB29EA0B09D1F810B00BFA63
:101780000CFC4CEA090CC4F820C0D0F800904FEAD9
:10179000420C91F804B00AFA0CF40BF0030B29EA9E
:1017A00004090BFA0CFB4BEA0909C0F80090D1F8C8
:1017B0000490B9F1010F18BFB9F1020F05D0B9F1CA
:1017C000110F18BFB9F1120F18D1D0F80890D1F845
:1017D0000CB029EA04090BFA0CFB4BEA0909C0F822
:1017E0000890D0F8049029EA050591F80490C9F30F
:1017F000001909FA02F949EA05054560C56825EAB4
:1018000004048D6805FA0CFC4CEA040CC0F80CC00A
:10181000D1F804C01CF0805F73D0D6F818C04CF02B
:10182000010CC6F818C0D6F818C00CF0010CCDF8A1
:1018300000C022F0030C0CF1804404F58034D4F88D
:1018400008C095072D0F08FA05F900E059E02CEAC9
:10185000090CB0F1904F08BF4FF0000918D0A0F16B
:101860009049B9F5806908BF4FF0010910D0A0F187
:101870009049B9F5006908BF4FF0020908D0A0F1FE
:101880009049B9F540690CBF4FF003094FF00509C5
:1018900009FA05F545EA0C0CC4F808C0DEF800C0EA
:1018A0004C682CEA030C14F4803F18BF4CEA030C7C
:1018B000CEF800C0184CD4F800C04D682CEA030CD8
:1018C00015F4003F18BF4CEA030CC4F800C0134CD9
:1018D000D4F800C04D682CEA030C15F4801F18BF23
:1018E0004CEA030CC4F800C00D4CD4F800C04D689D
:1018F0002CEA030C15F4001F18BF4CEA030CC4F8C3
:1019000000C00B68521CD3407FF41CAFBDE8F88FB9
:10191000001002400004014004040140080401409A
:101920000C040140002A14BF8161816270470000ED
:101930000148806870470000500600200248816816
:10194000027811448160704750060020074810B5A6
:10195000016841F010010160032000F081F80420CB
:1019600000F006F800F024F8002010BD002002402E
:1019700070B50D4D04464FF47A712878B1FBF0F044
:101980000A490968B1FBF0F000F0FAFD48B9102CE3
:1019900007D200222146501E00F030F800206C6073
:1019A00070BD012070BD0000500600205C060020C4
:1019B000094881B0816941F001018161816901F0CB
:1019C00001010091C16941F08051C161C06900F01D
:1019D0008050009001B07047001002400028B8BF4E
:1019E000704700F01F01012202FA01F14009800056
:1019F00000F1E020C0F8001170470000174B10B450
:101A00001B68C3F30223C3F1070CBCF1040F88BFAA
:101A10004FF0040C1C1D072C34BF0023DB1E0124D7
:101A200004FA0CFCACF1010C0CEA0101994004FA37
:101A300003F35B1E1A40114300284FEA0111A1BFB6
:101A400000F1E02080F8001410BC704700F00F0097
:101A500000F1E02080F8141D10BC70470CED00E090
:101A6000074900F007000A684FF6FF031A4042EAF0
:101A7000002040F0FD7040F080600860704700007A
:101A80000CED00E02DE9F84F04460068824D10F49B
:101A9000803F7DD0E8694FF0000910F0805F09D1E8
:101AA000E86940F08050E861E8694FF0010900F012
:101AB00080500090794F386810F4807F13D13868D7
:101AC00040F480703860FFF733FF0646386810F442
:101AD000807F08D1FFF72CFF801B64285AD8386814
:101AE00010F4807FF6D0286A10F4407055D0A18899
:101AF00001F44071814250D0286A0127390491FADB
:101B0000A1F2B2FA82F2920002F1844202F584025A
:101B100020F44070C2F8007491FAA1F10022B1FAE9
:101B200081F1890001F1844101F58401C1F80024AB
:101B3000286210F0010F30D0FFF7FAFE804602262F
:101B400041F2883A96FAA6F0B0FA80F040F04000F0
:101B5000B7EB501F08BF28680AD096FAA6F0B0FA73
:101B600080F040F04000B6EB501F0CBF286A686A56
:101B700096FAA6F1B1FA81F101F01F0107FA01F11D
:101B800008420AD1FFF7D4FEA0EB0800504500E060
:101B900010E0D7D90320BDE8F88F286A616820F4E7
:101BA000407008432862B9F1000F03D0E86920F0C3
:101BB0008050E861207810F0010F05D0286BA168F3
:101BC00020F0030008432863207810F0200F05D090
:101BD000286BE16820F0100008432863206810F4A7
:101BE000003F05D06868216B20F4800008436860DE
:101BF000207810F0400F05D0286B216920F02000DC
:101C000008432863208810F4004F05D0286B6169D1
:101C100020F0400008432863208810F4007F05D09E
:101C20006868E16920F4000008436860207810F0DB
:101C3000800F05D0E86AA16920F4F8700843E862D3
:101C4000208810F4805F05D0286B216A20F4807012
:101C500008432863206810F4802F05D0286B616A40
:101C600020F4806008432863206810F4002F05D01A
:101C7000286BA16A20F4006008432863206810F4F0
:101C8000801F05D0286BE16A20F4005008432863C8
:101C90000020BDE8F88F00000010024000700040F6
:101CA000002804BF012070472DE9F047DFF8F881D4
:101CB00005460E46D8F8000000F00700B0420CD2EE
:101CC000D8F8000020F007003043C8F80000D8F82A
:101CD000000000F00700B04272D12878734C10F079
:101CE000020F05D06068A96820F0F000084360602A
:101CF000287810F0010F6BD06A680123012A31D0D7
:101D0000022A46D0022191FAA1F0B0FA80F040F008
:101D1000200040090CBF606A206891FAA1F1B1FA75
:101D200081F101F01F0103FA01F1084263D06068FC
:101D300020F0030010436060FFF7FAFD074660687B
:101D4000696800F00C00B0EB810F18BF41F28839D0
:101D50003ED000BFFFF7ECFDC01B484531D9032042
:101D6000BDE8F0874FF4003191FAA1F0B0FA80F0AD
:101D700040F02000400914BF2068606A91FAA1F188
:101D8000B1FA81F101F01F0103FA01F1084232D0EA
:101D9000CDE74FF0007191FAA1F0B0FA80F040F079
:101DA0002000400914BF2068606A91FAA1F1B1FADD
:101DB00081F101F01F0103FA01F108421BD0B6E7DF
:101DC00019E0606800F00C016868B1EB800FC1D1C8
:101DD000D8F8000000F00700B0420FD9D8F8000092
:101DE00020F007003043C8F80000D8F8000000F0E9
:101DF0000700B04202D00120BDE8F087287810F03B
:101E0000040F05D06068E96820F4E0600843606072
:101E1000287810F0080F06D06068296920F4605017
:101E200040EAC10060606168214801F00C02042AA8
:101E300024D0082A22D14FF4701393FAA3F301F4AB
:101E40007012B3FA83F3DA401A4B9D5CE26A0F23F7
:101E500093FAA3F302F00F02B3FA83F3DA40164BBE
:101E600011F4803F9A5C04BF1448A5FB000105D023
:101E700000231946FEF7A4F9A0FB05016168F022D2
:101E800092FAA2F201F0F001B2FA82F2D1400C4AC9
:101E9000515CC8400B4908600B480068FFF768FDBB
:101EA0000020BDE8F0870000002002400010024042
:101EB00000127A00387100084871000800093D00DE
:101EC000587100085C060020540600200148006894
:101ED000704700005C06002008480949006849680E
:101EE0004FF4E06292FAA2F201F4E061B2FA82F2F7
:101EF000D140044A515CC840704700005C06002095
:101F000000100240687100080848094900684968E3
:101F10004FF4605292FAA2F201F46051B2FA82F2E6
:101F2000D140044A515CC840704700005C06002064
:101F30000010024068710008194A5168194801F000
:101F40000C03042B08BF7047082B18BF704710B54F
:101F50004FF4701C9CFAACFC01F47013BCFA8CFCBE
:101F600023FA0CF3DFF840C0D26A1CF803400F23B9
:101F700093FAA3F302F00F02B3FA83F3DA400CF101
:101F8000100311F4803F9A5C02BF0848A4FB0001D3
:101F900010BD00231946FEF713F9A0FB040110BD84
:101FA0000010024000127A003871000800093D005C
:101FB000002804BF012070472DE9F84F044600783F
:101FC000FF4D10F0010F4FF0010626D0686877042E
:101FD00000F00C00042808D0686800F00C00082805
:101FE00060D1686810F4803F5CD097FAA7F0B0FA2F
:101FF00080F040F02000400914BF2868686A97FA12
:10200000A7F1B1FA81F101F01F0106FA01F10842CE
:1020100003D06068002800F0AB8220784FF0000900
:1020200010F0020F4FF0020778D068684FF0F80AFE
:1020300010F00C0F73D0686800F00C00082804BF83
:10204000686810F4803F6AD02069002896FAA6F0EC
:10205000B0FA80F04FEA800000F1844000F584007F
:1020600000F0EA800660FFF763FC804697FAA7F06D
:10207000B0FA80F040F02000400914BF2868686A78
:1020800097FAA7F1B1FA81F101F01F0106FA01F107
:1020900008426ED1FFF74CFCA0EB08000228E5D9FE
:1020A00000F005BA6068B0F5803F04BF286840F4CE
:1020B00080300AD010B1B0F5A02F31D0286820F4BC
:1020C00080302860286820F480202860E86AA168B1
:1020D00020F00F000843E862606848B3FFF728FC6F
:1020E0004FEA000897FAA7F0B0FA80F040F020001D
:1020F000400914BF2868686A97FAA7F1B1FA81F11C
:1021000001F01F0106FA01F1084286D1FFF710FC29
:10211000A0EB08006428E5D900F0C9B94DE029E03A
:10212000286840F480202860286840F48030CCE79C
:10213000FFF7FEFB4FEA000897FAA7F0B0FA80F02D
:1021400040F02000400914BF2868686A97FAA7F198
:10215000B1FA81F101F01F0106FA01F108423FF4E2
:102160005CAFFFF7E5FBA0EB08006428E4D900F0C2
:102170009EB917E097FAA7F0B0FA80F040F020007F
:10218000400914BF2868686A97FAA7F1B1FA81F18B
:1021900001F01F0106FA01F108421CBF2069012865
:1021A00040F0E68128689AFAAAF26169B2FA82F2EE
:1021B00020F0F800914008432860207810F0080FC4
:1021C0007DD0A069002896FAA6F0B0FA80F04FEA18
:1021D000800000F1844000F584004FD0C0F8806496
:1021E000FFF7A6FB4FEA000897FAA7F0B0FA80F0D5
:1021F00040F06000B6EB501F08BF28680AD097FA7D
:10220000A7F0B0FA80F040F06000B7EB501F0CBFB1
:10221000286A686A97FAA7F1B1FA81F101F01F0103
:1022200006FA01F1084258D1FFF782FBA0EB080043
:102230000228D9D900F03BB9C0F80090FFF778FB2D
:102240004FEA000897FAA7F0B0FA80F040F02000BB
:10225000400914BF2868686A97FAA7F1B1FA81F1BA
:1022600001F01F0106FA01F10842A6D0FFF760FB5A
:10227000A0EB08000228E5D900F019B9C0F8809455
:10228000FFF756FB4FEA000897FAA7F0B0FA80F084
:1022900040F06000B6EB501F08BF28680AD097FADC
:1022A000A7F0B0FA80F040F06000B7EB501F0CBF11
:1022B000286A686A97FAA7F1B1FA81F100E00CE0A8
:1022C00001F01F0106FA01F1084206D0FFF730FBCA
:1022D000A0EB08000228D7D9E9E0207810F0040F1D
:1022E00072D0E8694FF0000B10F0805F09D1E86907
:1022F00040F08050E861E8694FF0010B00F0805039
:102300000090DFF8C080D8F8000010F4807F18D16A
:10231000D8F8000040F48070C8F80000FFF708FB10
:102320008246D8F8000010F4807F0AD1FFF700FB46
:10233000A0EB0A0064284AD8D8F8000010F4807F87
:10234000F4D0E068012804BF286A40F0010009D0F9
:1023500008B105283CD0286A20F001002862286ACC
:1023600020F004002862E06841F2883A68B3FFF781
:10237000DFFA804697FAA7F0B0FA80F040F040000C
:10238000B6EB501F08BF28680AD097FAA7F0B0FA3A
:1023900080F040F04000B7EB501F0CBF286A686A1D
:1023A00097FAA7F1B1FA81F101F01F0106FA01F1E4
:1023B000084240D1FFF7BCFAA0EB0800504505E009
:1023C00000100240007000403CE009E0D2D96EE00D
:1023D000286A40F004002862286A40F00100C1E742
:1023E000FFF7A6FA4FEA000897FAA7F0B0FA80F0D4
:1023F00040F04000B6EB501F08BF28680AD097FA9B
:10240000A7F0B0FA80F040F04000B7EB501F0CBFCF
:10241000286A686A97FAA7F1B1FA81F101F01F0101
:1024200006FA01F1084206D0FFF782FAA0EB080095
:102430005045D9D93BE0BBF1000F03D0E86920F04B
:102440008050E861E069A8B3696801F00C010829CF
:102450007FD04FF08078022898FAA8F0B0FA80F088
:102460004FEA800000F1844000F584004FF00077CF
:10247000C0F800901FD0FFF75BFA044697FAA7F068
:10248000B0FA80F040F02000400914BF2968696A62
:1024900097FAA7F0B0FA80F000F01F0006FA00F0FB
:1024A000014268D0FFF744FA001B0228E6D9032056
:1024B000BDE8F88F5FE0FFF73BFA814697FAA7F097
:1024C000B0FA80F040F02000400914BF2868686A24
:1024D00097FAA7F1B1FA81F101F01F0106FA01F1B3
:1024E000084206D0FFF724FAA0EB09000228E5D93C
:1024F000DDE7D4E908100843696821F47411084342
:10250000686098FAA8F0B0FA80F0800000F184408A
:1025100000F584000660FFF70BFA044697FAA7F06F
:10252000B0FA80F040F02000400914BF2868686AC3
:1025300097FAA7F1B1FA81F101F01F0106FA01F152
:10254000084218D1FFF7F4F9001B0228E6D9AEE7DC
:10255000FFE7012808BFBDE8F88F6868226A00F429
:102560008031914204D1616A00F47010884202D037
:102570000120BDE8F88F0020BDE8F88F704700000B
:10258000411EB1F1807F24BF012070474FF0E02051
:102590004161054AF02182F8141D00218161072163
:1025A00001610020704700000FE000E010B5FFF768
:1025B000E5FF10BD90F83C20012A04BF02207047BF
:1025C000012280F83C20CA688B6822F440721A43CA
:1025D0004B6822F480621A430B6822F400621A43AB
:1025E0000B6922F480521A434B6922F400521A43B9
:1025F0008B6A22F480421A430B8B22F4702242EA47
:1026000003420368A3F1804CBCF5963C0FD1B1F8AE
:1026100024C022F4700242EA0C52D1F81CC022F00D
:10262000807242EA0C02096A22F000720A435A647C
:10263000002180F83C1008467047002804BF0120A4
:10264000704770B5044690F83D0088B00E460025EE
:1026500020B984F83C50204600F04FF8022084F85E
:102660003D00211D206803F069FAB3683168032238
:10267000206803F054FB2068816921F00C0181611E
:10268000206881697268114381612068416841F066
:10269000800141602068816821F0700181602068BC
:1026A000816841F0400181602068816821F0070164
:1026B00021F4803181602068816841F004018160EB
:1026C0007020059504950695039502950090F06895
:1026D00001906946206803F071FA2068416821F092
:1026E000700141602068416841F050014160012063
:1026F00084F83D0008B0002070BD704790F83C2081
:10270000012A04BF0220704770B44FF0010C80F81A
:102710003CC0022280F83D20026853689468114D45
:10272000AA4203D14E6823F4700333430E6823F0AA
:102730007003334353600268AA421EBFB2F1804F58
:10274000A2F18043B3F5A03304D1896824F080035B
:102750001943916080F83DC0002180F83C1070BCA6
:1027600008467047002C0140002804BF0120704734
:1027700010B5044690F83D0028B9002084F83C00CC
:10278000204600F00DF8022084F83D00211D20684D
:1027900003F0D4F9012084F83D00002010BD0000B2
:1027A000F0B587B00026009601960296039604962F
:1027B00001682D4802240125A1F18042B2F596322C
:1027C00033D0B1F1804F1CBF07B0F0BDC16941F0FB
:1027D0000101C161C16901F001010591416941F443
:1027E00080214161416901F480210591416941F4F1
:1027F000003141614069032700F4003005904FF437
:102800008160CDE90004CDE9037569461748FEF7FC
:1028100089FF4FF4004004958DE8D10069464FF0E0
:102820009040FEF77FFF07B0F0BD816941F4006181
:102830008161816901F400610591416941F40031D0
:1028400041614069029500F4003005904FF400604A
:10285000CDE900040C20049069464FF09040FEF74B
:1028600061FF07B0F0BD0000001002400004004806
:1028700090F83C20012A0DBF0220012380F83C3053
:10288000704730B4022280F83D20D0F800C0DCF858
:10289000082022F0770222F4803222F47F42CCF822
:1028A00008200A68502A3DD00CDC202A74D004DCB1
:1028B000002A18BF102A51D18CE0302A6CD0402A4F
:1028C0006CD091E0602A4AD0702A06D0B2F5805FC1
:1028D00044D0B2F5005F12D086E0D1E9014C026825
:1028E000C968956844EA012125F47F4541EA0C0155
:1028F0002943916001688A6842F0770210E002681B
:10290000D1F804C08C68C96895684CEA012125F4A7
:102910007F4521432943916001688A6842F48042DF
:102920008A6061E00268D1F804C0C968146A156A57
:1029300025F001051562956924F00A0425F0F005DB
:1029400045EA011144EA0C0C9161C2F820C001680B
:102950008A6822F0700242F057028A6044E00268FE
:10296000D1F804C0C968146A24F01004146295698F
:10297000146A25F4704545EA013124F0A00444EAC4
:102980000C1C9161C2F820C001688A6822F07002B4
:1029900042F067028A6027E01CE0FFE70268D1F896
:1029A00004C0CC68116A156A25F0010515629569A5
:1029B00021F00A0125F0F00545EA041441EA0C0172
:1029C0009461116201688A6822F0700242F0470245
:1029D0008A6009E00168D1F808C02CF0700C4CEA5C
:1029E000020242F007028A6080F83D30002180F840
:1029F0003C1030BC0846704700B587B000210091FC
:102A000001910291039104910068A0F18041B1F518
:102A100096311CBF07B000BD0C48416941F400313C
:102A200041614069694600F4003005904FF4E06070
:102A30000090022001900290032003900620049051
:102A40004FF09040FEF76EFE07B000BD0010024050
:102A50002DE9F047054690F83C000C4601280DBFD3
:102A60000220012685F83C60BDE8F087022085F849
:102A70003D00BE4BDFF8F8C2BE4FBF490C2A72D0F2
:102A800006DC6AB1042A5AD0082A6ED000F066B972
:102A9000102A00F0EC80142A00F0248100F05EB9C6
:102AA0002868026A22F001020262026AD0F80480F9
:102AB000D0F81890D4F800A029F0730929F48039CF
:102AC0004AEA0909D4F808A022F002024AEA0202FE
:102AD000884218BF984203D0604518BFB84207D15A
:102AE000D4F80CA022F008024AEA020222F0040202
:102AF000884218BF984203D0604518BFB84206D13B
:102B0000636928F440711943A36943EA0108C0F8D6
:102B10000480C0F818906168416302622868816986
:102B200041F0080181612868816921F00401816117
:102B30002868816922691143816100F00FB921463B
:102B4000286803F03BF82868816941F400618161DD
:102B50002868816921F4806181612868816922691E
:102B600041EA0221E8E745E0FFE72868026A22F42B
:102B700080720262026AD0F80480D0F81C90D4F807
:102B800000A029F0730929F480394AEA0909D4F828
:102B900008A022F4007242EA0A22884207D122F4F5
:102BA0000061E26841EA022121F4806204E0984277
:102BB0001CBF6045B84207D1636928F4405141EA1F
:102BC0000311A36941EA0318C0F80480C0F81C90FF
:102BD0006168C16302622868C16941F00801C1618E
:102BE0002868C16921F00401C1612868C1692269AE
:102BF00011433AE02868026A22F480520262D0F857
:102C000020904268D0F81C80D4F800A028F4E64850
:102C100028F0807848EA0A28D4F808A029F4005956
:102C200049EA0A39884218BF984203D0604518BF64
:102C3000B84204D122F48041626941EA82124260C2
:102C4000C0F81C8061680164C0F820902868C169E0
:102C500041F40061C1612868C16921F48061C161EA
:102C60002868C169226941EA0221C16176E02868C9
:102C7000026A22F480320262D0F820904268D0F8D2
:102C80005480D4F800A028F0700828F480384AEA6C
:102C90000808B4F808A029F4003949EA0A4988422A
:102CA00018BF984203D0604518BFB84204D122F43F
:102CB0008031626941EA02224260C0F85480616852
:102CC0008165C0F820902868416D41F00801416598
:102CD0002868416D21F0040141652868416D226931
:102CE00011433AE02868026A22F480120262D0F8A6
:102CF00020904268D0F85480D4F800A028F4E0482E
:102D000028F0807848EA0A28B4F808A029F40019C5
:102D100049EA0A59884218BF984203D0604518BF53
:102D2000B84204D122F48021626941EA82224260E1
:102D3000C0F854806168C165C0F820902868416D72
:102D400041F4006141652868416D21F4806141656D
:102D50002868416D226941EA0221416585F83D609C
:102D6000002085F83C00BDE8F087000000400140ED
:102D70000044014000480140002C0140002804BFED
:102D80000120704710B5044690F83D0028B9002096
:102D900084F83C00204600F00CF8022084F83D0046
:102DA000211D206802F0CAFE012084F83D000020A9
:102DB00010BD704770B5044690F83C00012804BF70
:102DC000022070BD012584F83C50022084F83D00AB
:102DD000204602F033FF01004FF0000005D084F8D8
:102DE0003D5084F83C00012070BD2168CA6822F083
:102DF0004002CA602168CA6822F48042CA6084F82E
:102E00003D5084F83C00002070BD002804BF012024
:102E1000704710B50446406F28B9002084F8700050
:102E2000204600F027F8242060672068016821F020
:102E300001010160204603F0ADF8012808BF10BD74
:102E4000606A00281CBF204603F008F8206841682B
:102E500021F4904141602068816821F02A0181605D
:102E60002068016841F0010101602046BDE8104082
:102E700003F061B800B587B0002100910191029183
:102E8000039104910068A0F18041B1F588411CBF15
:102E900007B000BD0E48C16941F40031C161C1698C
:102EA00001F400310591416941F40031416140690B
:102EB000694600F4003005900C200090022001903B
:102EC000072004904FF09040FEF72CFC07B000BDA7
:102ED0000010024002F052FF174C0825D4F82001E0
:102EE000C06910F0080F07D0134803F089F9D4F82F
:102EF0002001056203F0C4FCD4F82001C06910F081
:102F0000800F1CBF0C4803F02BFAD4F82001C169D4
:102F100011F0200FE2D0808CC1B2074803F07AF99B
:102F20000088012804D0022808BF03F0A9FCD5E7D7
:102F300003F0A0FCD2E70000C4040020012908BF70
:102F400000211FD0042908BF01211BD0102908BF70
:102F5000022117D0402908BF032113D0B1F5807F8B
:102F600008BF04210ED0B1F5806F08BF052109D03C
:102F7000B1F5805F08BF062104D0B1F5803F0CBFDA
:102F800007210821084B18305B5C1844D0F800C0BA
:102F9000064B595C064B8B402CEA030302FA01F105
:102FA00019430160704700007073000879730008CE
:102FB0007300010010B50446406802F045FCA168AA
:102FC000086110BD0068012102F0A4BC002808BF00
:102FD000704710B50446007E012818BF10BD217B44
:102FE0000020012904D0022910D003291ED026E098
:102FF000A16881F824000121606802F04DFCE28A9A
:10300000B4F90E10606802F0CEFB0CE0A16881F804
:1030100024000021606802F03FFCE28AB4F910103D
:10302000606802F0C0FB50B1022009E0A1680120F5
:1030300081F82400A068D4F812100161F4E703209D
:10304000207610BD01230373C181C28203764376CB
:103050007047022303730182C2820121017600219D
:1030600041767047006802F023BC10B5406802F05A
:1030700001FCBDE8104002F020BB407E7047806834
:10308000006870478068406870478068C068704713
:10309000806800697047027B0021012A08BFB0F9EF
:1030A0000E1008467047406802F0D8BB006802F076
:1030B0002ABC8068B0F91E0070478068D0F81A00FA
:1030C00070478068D0F8160070478360C0E900122E
:1030D00000210173C1810182C18201767047032200
:1030E0000273418209148182012101760021417617
:1030F00070478268518280688182704710B50446AB
:103100000068032102F006FC00281CBF0121217683
:1031100010BD0068072102F0FDBB406802F0C0BB93
:10312000014661F30F0044F6E61211FB02F244F689
:10313000E61311FB23F10A4411444942C913B1F5C6
:10314000004FA8BF47F6FF7104DA11F5004FB4BF76
:10315000054909B261F31F4011F5004F04BF48F261
:10316000010161F31F4070470080FFFF70B5054605
:10317000084600F059F82AB203B212FB03F14FEAF5
:10318000254C05141CFB05F0081AC0131649B0F5B0
:10319000004FA8BF47F6FF7004DA10F5004FB4BF28
:1031A000084600B260F30F04104E10F5004F08BF40
:1031B00066F30F0412FB05F01CFB03F21044C0136E
:1031C000B0F5004FA8BF47F6FF7103DA10F5004FC6
:1031D000A8BF01B2204661F31F4011F5004F08BFA0
:1031E00066F31F4070BD00000080FFFF0180FFFFFD
:1031F00010B50446084600F017F814FB00F122143D
:10320000031412FB03FC61444FEAE13C29466CF3D2
:103210000F0114FB03F312FB00F0C01AC01360F39C
:103220001F41084610BD000000F50041890911F456
:10323000407C00F50041C1F387121749C2F1FF033A
:1032400017D0BCF5807F1DD0BCF5007F0AD0BCF53F
:10325000407F18BF704731F8133031F8121063F314
:103260001F400DE031F8122031F8131062F31F40B7
:103270000FE031F8122031F81310524262F31F4070
:10328000494206E031F8133031F812105B4263F323
:103290001F4061F30F00704770710008F8B58C464D
:1032A0000446DDE90710069DC4F830C0C4E93001CA
:1032B0000B481E46174600900A4B0B4A21466046B3
:1032C000FDF717F96763C4E90E65206BA8478020F6
:1032D00084F8C800A16B206B01B0BDE8F04008473E
:1032E000ED320008093300086539000810B50446BE
:1032F000006BE16B8847802084F8C800A16B206BCD
:10330000BDE81040084700002DE9F04300269BB0BF
:10331000994614460F4605465FEA511813D0A8F1A6
:103320000102002103F0C4FA002808BF0B2000F0BE
:103330000D83D5F8C40007F01F0720B1A8F10102E2
:10334000002103F0B5FA0D2F80F0FF82DFE807F0CF
:10335000B307A2B2B1B1B0AFAEADACABAA002778A3
:1033600005208DF86400462F57D027DC0E2F71D032
:103370000ADC0E2F40D2DFE807F05F3F3F6E3F844C
:103380008484848484848484162F7AD009DCA7F111
:103390000F00072830D2DFE800F07440402F2F7470
:1033A00074001C2F5ED004DC172F18BF182F23D1F8
:1033B00067E01D2F5ED0412F63D01DE0612F60D0EC
:1033C00010DCA7F14700152816D2DFE800F026260A
:1033D0001515151515155A1515155A5A5A5A5A5ABA
:1033E0005A152600772F18D00FDC742F33D007DC46
:1033F000642F18BF652F44D002208DF8640092E13D
:10340000752F18BF762FF7D107E0782F18BF792FC7
:1034100003D07D2F18BF7E2FEED16078A17822795E
:1034200000EB0120E178090401EB02614218394602
:10343000284603F03DFA13E0647839462246D5F871
:10344000C40003F035FA22463946284603F030FA24
:10345000064668E115E062783946284603F028FA06
:10346000064660E162780021D5F8C40003F01BFA3B
:10347000012658E162780121D5F8C40003F013FA5F
:1034800050E16178A07801EB00223946284603F02C
:103490000FFAE5E7217803208DF86400832980F096
:1034A000578209E023E20DE2FEE1DBE1ADE199E1C3
:1034B0006BE14AE261E1D4E1880000BF78444068F2
:1034C000874400000C020000960200000C0200007D
:1034D0000C0200009602000074020000740200005A
:1034E0007402000074020000740200007402000004
:1034F00074020000740200007402000074020000F4
:1035000074020000740200007402000074020000E3
:1035100074020000740200007402000074020000D3
:1035200074020000740200007402000074020000C3
:10353000740200002C020000440200009602000009
:103540007402000074020000740200000C0200000B
:103550008C0400008C0400008C0400008C0400002B
:103560008C0400008C0400008C0400008C0400001B
:103570008C0400008C0400008C0400008C0400000B
:103580008C0400008C0400008C0400008C040000FB
:103590008C0400008C0400008C0400008C040000EB
:1035A0008C0400008C0400008C0400008C040000DB
:1035B0008C0400008C0400008C0400008C040000CB
:1035C0008C0400008C040000740200008C040000D5
:1035D0008C0400008C0400008C04000096020000A3
:1035E00096020000960200007402000074020000BF
:1035F00074020000740200000C0200009602000039
:1036000074020000740200007402000074020000E2
:1036100074020000740200007402000074020000D2
:103620007402000074020000740200000C0200002A
:10363000960200008C040000740200007402000076
:103640007402000074020000740200008C04000088
:103650008C04000074020000740200000C020000E0
:103660000C02000096020000960200009602000084
:1036700096020000960200000C0200007402000096
:1036800074020000960200008C0400007402000026
:10369000740200000C020000960200009602000076
:1036A00096020000960200009602000096020000BA
:1036B00096020000960200009602000096020000AA
:1036C000960200000C0200008C0400000C020000B6
:1036D000284602F0E5FE0090B0F1FF3F00F038818F
:1036E000D5E90C0C01236A46F02100F0FCB800BFBC
:1036F000D5F8C400002800F02B81002102F0C6FE9E
:103700008DF80000ECE700BFD5F8C40058B10121E6
:1037100002F0BCFE8DF80000D5E90C0C01236A46CE
:10372000F021E0470126002E00F012810023D5E9A8
:103730000C0C1A46F021D6E0284602F0B1FE0090AB
:10374000B0F1FF3F00F00481D5E90C0C02236A467A
:10375000F021E0471BB0BDE8F083284602F0A0FE50
:103760000090B0F1FF3F7CD0D5E90C0C04236A46F1
:10377000F021E0471BB0BDE8F083217807208DF8E9
:103780006400284602F038FE6AE6002002900390AA
:103790000490059006900790089002AA099005E011
:1037A0001318401CC0B2D9701D2804D2D5F8C0101F
:1037B000095C0929F4D1D5F8C010421D20238A5C88
:1037C0008DF80820C21D0930895C8DF80910D5F8E4
:1037D000C01002AA085C8DF80A00D5E90C0CF02193
:1037E000E047A3E720796179E37800EB012082B21A
:1037F0002078617800EB0120A178090401EB0361D6
:103800000144284602F030FE2AE618A800902178EC
:103810001AAB15AA284602F0D7FFBDF968000823A5
:1038200000EB400040008DF84800010A8DF8491077
:10383000010C8DF84A10000E8DF84B00BDF86000A9
:103840008DF84C00000A8DF84D00BDF854008DF83D
:103850004E00000A8DF84F00D5E90C0C12AAF02199
:10386000E04775E0E079227AA37800EB022082B28B
:10387000607894F804C000EB0320E37821781B04FF
:1038800003EB0C631844354B94F806C083FB0030FF
:10389000A0EBE07003B2607900EB0C2000B2009066
:1038A000284603F0A7F8DBE520786178E27800EBA2
:1038B000012001B2A07800EB022002B2284602F0FB
:1038C000E5FF33E70C208DF8640016948DF85C90CA
:1038D000234916A802F0E2FDB0B32148F021037994
:1038E0000268D5E90C0CE0471BB0BDE8F08300206E
:1038F0000AAA04E01154401CC0B2202804D2D5F812
:10390000C010095C0029F5D1C0F12001002914DDA7
:103910001044401E11F0010F02D0002200F8012FC8
:10392000C1F34701002918BF002206D04270491E8A
:1039300000F8022F11F0FF01F8D1D5E90C0C20237B
:103940000AAAF021E047F1E602E001208DF86400C8
:10395000D5E90C0C012319AAFF21C4E7ABAAAA2AB6
:103960000C00002010B50446006BE16B88478020F6
:1039700084F8C800A16B206BBDE810400847000028
:1039800001480068FFF792BB040000202DE9F041D8
:103990001E4C2078002808BFBDE8F08100F03EF8FA
:1039A000207801282DD11A480026006800F028FA56
:1039B000184D0746286800F0FDFA0743E06901F05A
:1039C000ECFD40EA0701C84382B205F1100420462D
:1039D00001F079FF204601F096FF0A2805D00B2858
:1039E00004BF286800F0DAFB09E0286800F0D6FB85
:1039F0003046FCF785FD0848006800F0D5F901F075
:103A0000F3FCBDE8F04102F01FBF000000060020FB
:103A100020060020240600202806002038B55A4C35
:103A20002078012818BF38BD608800281CBF608836
:103A3000401E7AD10020ADF8000069465348FCF7DB
:103A400095FD5348006800F085FA524801F05BFF8D
:103A5000C01E102842D2DFE800F0083D4259697CC0
:103A60008387878787878713202C4B48006801F05E
:103A700009FC1420A0801021464801F04BFF73E0A0
:103A8000A088002870D144480021006800F094FA12
:103A90001121404801F03EFF66E03F4801210068E7
:103AA00000F08AFA00285FD012213A4801F032FF74
:103AB0005AE03648FCF7D6FD0421364801F02AFFCB
:103AC000002851D00020FCF71BFD3348006801F0AE
:103AD00077FB49E005212F4801F01CFF44E02F4D02
:103AE00095F8240028B92E48006801F026FEE883E6
:103AF00028820621274801F00DFF2948006801F0BF
:103B00009BFE28480068FFF761FA2DE02548006811
:103B1000FFF75CFA214D95F8240000BB20480068AF
:103B200001F00BFEE88328821EE01EE01A480068C0
:103B300001F064FA0020FCF7E3FC1548006800F08F
:103B400033F94FF44870E0800821124801F0E2FE9A
:103B50000AE0E08818B909210E4801F0DBFE03E015
:103B600000210C4801F0D6FE01206080A08810B131
:103B7000A088401EA080E088002808BF38BDE088EB
:103B8000401EE08038BD00000006002094020020A6
:103B9000280600203406002024060020C407002048
:103BA0000C0600200806002001480068FFF7A6BAAE
:103BB0000400002001480068FFF7ABBA04000020B1
:103BC0002DE9F35F524E002406F12C013470514868
:103BD0000860A1F108085048C8F8000000F098FCFF
:103BE00003F040FA06F1340001F08FFE4B4800F07C
:103BF0005FF906F1100B4948CBF8000006F10C05FF
:103C0000474828604748FCF759FDDBF80010454A53
:103C1000286801F031FE444800F04AF9434800F0BA
:103C200047F905F108094048C9F8000005F10C0AF8
:103C30003E48CAF800003E48F06101F016FD05F16B
:103C40001C013C480860F1693B4FC0E943713B48A7
:103C500000F011F905F114003849016005F1240163
:103C60003748086001F068FC0020FCF749FC01209F
:103C700087F82400286801F0E7FD3861286801F022
:103C8000E3FD0014B88207F128002F1FA0F12803DC
:103C9000386005F128012A68FFF717FA286801F053
:103CA000E3FD3B68014600221846FFF7CBF9009878
:103CB000396801602348DBF800100160D9F8001072
:103CC0004160DAF80010C0E90214D8F80010C0E929
:103CD00004141449C0E9061404622968416205F11C
:103CE0002801816214390968C162F169C0E90C14C4
:103CF00005F11C0184630968C0E90F1444648464FD
:103D0000C464019908600120307002B0BDE8F09FE2
:103D10000006002010040020E001002028010020FF
:103D2000AC010020940200205401002080010020FA
:103D30005803002014000020C40700203003002096
:103D4000FC0300200808002070B4B0F8002120F81F
:103D50001210B0F80021A0F80221521C92B2A0F873
:103D60000021802A24BF0022A0F800210246B0F9D9
:103D70000030B0F902504FF0000C3F2432F9046FCC
:103D80002B44B2F90250B444641EF7D103EB0C0289
:103D9000B0F9FE301A44D31702EB5362D211A0F8E7
:103DA000042170BC0846704710B504464FF480717A
:103DB000FCF74EFA0020A4F80001A4F8020110BD9F
:103DC000B0F904017047000008B5FEF77FF84FF422
:103DD000FA61B0FBF1F0FEF7D3FB0749081FFFF7CC
:103DE000EFFE03F0BBF8044B04481A1F00900121BA
:103DF000101F02F01BFE08BD08000020C470000860
:103E000010B50446007800281CBF0020E08201D0D5
:103E100080B210BD94F8260001F0A0FAA0F57F4111
:103E2000FF3907D0218B238A4A1E03FB0200B0FB17
:103E3000F1F02082208A618B884288BF082004D854
:103E4000A18B81428CBF0020E08AE082E0E701780C
:103E5000002918BF808A01D000B27047018A026A27
:103E6000891AB0F91E20808C5143CA1701EB124108
:103E700000EB2140F0E770B504460078002518B14A
:103E8000E582608A208270BD201D01F0CFFA84F89F
:103E90002600258270BDB0F922007047B0F90600F7
:103EA0007047408B7047B0F904007047008B704733
:103EB000018881804188C180018C4184002181601A
:103EC000816270478160704741847047C18070474C
:103ED0008180704770B4B0F90420002402FB01F621
:103EE000B0F90620B0F914C0B0F91630002A04BFAA
:103EF0000021816014D085684A43A91805D5002D9A
:103F0000C4BF002A6FF0004103E0002DBCBF002AAF
:103F10000F49C2688A42A5BF0269914282608160EE
:103F2000827F8168057F41FA02F246FA05F52A444C
:103F30006245C4BFACEB0204624603DC9342C4BFDB
:103F40009C1A1A462144816070BC10B27047000070
:103F50000100008070B5D0F80C110446C868D1F893
:103F6000161010FB01F210FB3121C81701EB1040B5
:103F70000514D4F8100102F0E5FDD4F80811484307
:103F80004FF4167190FBF1F0684300EB40000849D4
:103F9000400081FB00108110A1EBE071C81701EB1C
:103FA000104001142046BDE87040FFF7CDBE000070
:103FB00067666666016B084770B50446002511B157
:103FC000012908D017E081688847B4F86200A4F896
:103FD000520080B90BE0B4F85200002808BF012558
:103FE00009D0401E0004000CA4F8520003D121693E
:103FF000204688470125284670BD4268104730B4E6
:104000000AB2B0F860C0091401FB0CF1B0F84430FA
:1040100049005A4349428B18A1EB020203EBD373C8
:1040200002EBD2725B104FEA62024FEA9C0C42D55F
:10403000002A14DA0421A0F84610991ACC1701EBD3
:1040400094310CEBA14CD11702EBD1310CEB614256
:10405000D91703EBD131ACEB6143816A6DE00029E4
:1040600014DC0323A0F846308B1ADC1703EB9433DF
:104070000CEBA34CD31702EBD332CB170CEB624201
:1040800001EBD331A2EB6143416A56E00222A0F872
:1040900046205A1AD41702EB94320CEBA24CDA17D2
:1040A00003EBD232ACEB6243CA1701EBD23103EB24
:1040B0006142016A41E0002A14DB0121A0F84610A8
:1040C000991ACC1701EB94310CEBA14CD11702EBF0
:1040D000D1310CEB6142D91703EBD131ACEB614329
:1040E000C1692AE0002914DC0522A0F846205A1AEA
:1040F000D41702EB94320CEBA24CDA1703EBD2325A
:10410000ACEB6243CA1701EBD23103EB6142C16AE7
:1041100013E00023A0F846308B1ADC1703EB94332E
:104120000CEBA34CD31702EBD332CB170CEB624250
:1041300001EBD331A2EB614381691FFA8CFCA0F83B
:1041400048C092B2A0F84A209BB2A0F84C30B0F818
:104150005C40012C01D030BC0847B0F95640002C1F
:10416000B0F85E40CCBFA444ACEB040CA0F848C04F
:10417000B0F958C0BCF1000F1FFA84FCCCBF6244F8
:10418000A2EB0C02A0F84A20B0F95A20002AA2B2F1
:10419000CCBF1A449A1AA0F84C20DCE78168084783
:1041A00090F8AE1089B9D0F8B0100A7C022A0CD170
:1041B0004A69098B9162D0F8B010CA69098C916282
:1041C000D0F8B020516A128D8A62012180F8AC10BB
:1041D00054307047D0F8B010C9684A6C42F480621D
:1041E0004A64012180F8AD1080F8AE105430704759
:1041F0002DE9F0430446D0F8B0004FF00008C56840
:10420000C4F86C80C4F87080C4F8748084F8A88006
:10421000286A20F0550020F4A06028624C486060B5
:104220004C48A061E06120626062A062E062D4F864
:104230009000E067204600F0C3FFD4F8B0004FF6CE
:10424000FD76C0792E61401C400800EB001794F801
:10425000A80000214FF00109102813D2286910F09E
:10426000020F0BD02E61481C81B2B94206D394F8DC
:10427000A800102802D2A4F84E9003E094F8A800F9
:104280001028EBD3204600F0B9FE84F8A88032480D
:104290006060D4F88C00E067204600F091FF2E614A
:1042A00094F8A8100020102913D2296911F0020FE8
:1042B0000BD02E61401C80B2B84206D394F8A810EF
:1042C000102902D2A4F84E9003E094F8A810102907
:1042D000EBD3204600F092FEE06E0009E066206F0E
:1042E00000092067606F000960671C4860601C4817
:1042F000A0611C48E0611C4820621C4860621C48A8
:10430000A0621C48E062D4F89000E067A9694FF20F
:10431000F7700140A961E9690840E861B4F87800E4
:104320006863B4F87800A863B4F87800E863A96912
:1043300040F608000143A961E9690843E861286A79
:1043400040F255510843286284F8AE80BDE8F083FE
:104350009D440008794D0008DF44000879430008B7
:104360008B4D0008F34D00085B4E0008C34E00085B
:104370002B4F0008934F000870B4D0F8B0206FF0B6
:104380000103D2681361D0F8B0201268D2F88030EF
:10439000D2F884201FFA83FC93B23F4C90F8462059
:1043A000650C062A6AD2DFE802F0214646030321A3
:1043B000C66E032A0CBFF61AA6EB0C0616F5004FC4
:1043C000D8BF0C8004DDB6F5004FACBF0D800E8069
:1043D000032A026F0CBFA2EB0C02D21A12F5004F97
:1043E00049DDB2F5004F48DB4D8047E0066F052AF6
:1043F0000CBFF61AA6EB0C0616F5004FD8BF4C8082
:1044000004DDB6F5004FACBF4D804E80052A426FEB
:104410000CBFA2EB0C02D21AB1F902301A4452427C
:10442000B2F5004FA8BF0D8028DA12F5004FD4BFB7
:104430000C800A8022E0C66E022A0CBFF61AA6EB98
:104440000C0616F5004FD8BF0C8004DDB6F5004F02
:10445000ACBF0D800E80022A426F0CBFA2EB0C0293
:10446000D21AB1F900301A445242B2F5004FBBDA09
:1044700012F5004F01DC4C8000E04A800A88A0F869
:1044800056204A88A0F858200A8849881144494291
:10449000A0F85A1070BC70470180FFFFD0F8B01030
:1044A0006FF00102C9680A6190F8A810102928BFAE
:1044B0007047D0F8B020C16E1268D2F88020114445
:1044C000C166D0F8B020016F1268D2F88420114480
:1044D000016790F8A810491C80F8A8107047D0F820
:1044E000B0106FF00102C9680A6190F8A810102995
:1044F00028BF7047D0F8B020416F1268D2F88020F2
:104500001144416790F8A810491C80F8A810704722
:104510002DE9F84FD0F8B010D1F844C04F6BCE6BF6
:10452000CC6ACA6809684B6823F004034B60042511
:104530000D604B6823F020034B604FF02008C1F85A
:104540000080D0F8B0301B6DD3F8049029F0040936
:10455000C3F80490D0F8B0301B6D1D60D0F8B030B7
:104560001B6D5D6825F020055D60D0F8B0301B6DD7
:10457000C3F80080136823F001031360D54D0023B6
:104580004FF480194FF4700E002C48D0D0F8B08052
:1045900098F830A0BAF1010F24D0D4F800A00AF0A6
:1045A000700ABAF1400F1DD1B8F84AA09EFAAEF8D1
:1045B000B8FA88F829FA08F805EB8808D8F808B09E
:1045C0006FF30F1B4BEA0A0AC8F808A0D5F804805D
:1045D00048F00108C5F80480D5F8008048F00108CB
:1045E000C5F80080ADF80030ADF8003006E000BF3F
:1045F000BDF8008008F10108ADF80080BDF800802A
:10460000B8F57A7FF4D3D4F8008048F00108C4F8F4
:104610000080D4F8008048F00048C4F800803FB122
:104620003C6844F001043C603C6844F000443C6059
:104630003EB1346844F001043460346844F000440E
:104640003460BCF1000F3DD0D0F8B04094F8486021
:10465000012E1CD0DCF8006006F07006402E16D14A
:10466000B4F84C609EFAAEF4B4FA84F429FA04F477
:1046700005EB8404A7686FF30F173E43A6606C68D0
:1046800044F001046C602C6844F001042C60ADF827
:104690000030ADF8003004E0BDF80040641CADF817
:1046A0000040BDF80040B4F57A7FF5D3DCF8004057
:1046B00044F00104CCF80040DCF8004044F0004431
:1046C000CCF800406FF0800CC2F810C0D0F8B0C039
:1046D0009CF82AC0BCF1000F1CBF6FF4807CC2F8AC
:1046E00010C0D2F80CC04CF0800CC2F80CC0D1F84D
:1046F00008C02CF0405CC1F808C0D1F808C02CF00C
:104700003F0C2CF0004C4CF0805CC1F808C0ADF8B8
:104710000030ADF80030BDF800404FF6E85C64456D
:104720000DD200BFBDF80040ADF80040BDF800401C
:10473000641CADF80040BDF800406445F2D3D1F8E8
:1047400008C02CF03F0C2CF0404C4CF0004CC1F851
:1047500008C000BFD1F808C01CF0004FFAD1D1F852
:1047600008C02CF03F0C2CF0004C4CF0010CC1F8B0
:1047700008C0D1F830C02CF00F0CC1F830C0D0F810
:10478000B0C0CC6C40259CF804609CF805700124F6
:1047900044EA062646F0400646EA8736C0F89060AE
:1047A0009CF805609CF80470D1F84C8044EA062619
:1047B00046F0400646EA8736C0F894609CF80460EC
:1047C0009CF80670D1F84C8044EA062646F0400674
:1047D00046EA8736C0F898609CF806709CF804603A
:1047E000D1F84C8044EA072747F0400747EA86366D
:1047F000C0F89C609CF805609CF80670D1F84C806D
:1048000044EA062646F0400646EA8736C0F8A0602D
:104810009CF806709CF80560D1F84C8044EA0724A7
:1048200044F0400444EA8634C0F8A4409CF80440B4
:10483000CE6C240244F04004C0F880409CF805404F
:10484000CE6C240244F04004C0F884409CF806C0BA
:10485000CC6C4FEA0C2C4CF0400CC0F88CC0D1F85A
:104860004CC04FF0410CC1F84CC0D1F808C04CF01E
:10487000080CC1F808C0DFF860C002F118049CF809
:1048800006C00CEB0406D6F800C0144CA779082427
:10489000BC402CEA040CC6F800C04FF6FF7CC2F8FE
:1048A00040C013643268224332600A6812F0400F3D
:1048B000FBD00D604A6842F040024A6080F8AD309B
:1048C00080F8AC30A0F85C30B0F86410A0F85E104E
:1048D000BDE8F88F00740040707300087973000819
:1048E000002190F8AD300A46012B04BF022180F868
:1048F000AD2090F8AC30012B04BF41F0400180F8AE
:10490000AC2008467047000070B5D0F8B0100546DE
:1049100090F85500CC68012818BF70BD206810F0D1
:10492000100FFBD0206810F0100FFBD1C879206366
:10493000602201212046FEF701FB206A40F00100C1
:104940002062D5F8B000007C012804BF206A40F046
:10495000040005D0022804BF206A20F0040000D122
:104960002062B5F87800400860636022102120467C
:10497000FEF7E4FA206A40F010002062D5F8B0009B
:10498000007C012804BF206A40F0400005D00228C6
:1049900004BF206A20F0400000D12062B5F8780002
:1049A0004008A06360224FF480712046FEF7C6FAEB
:1049B000206A40F480702062D5F8B000007C0128A5
:1049C00004BF206A40F4806005D0022804BF206A3A
:1049D00020F4806000D12062B5F878004008E063E0
:1049E000606840F070006060D5F8B0000068C16891
:1049F00021F48011C1600648686006486861064875
:104A0000E8600648A860002085F8550070BD0000E9
:104A10007943000885520008C1510008FD4F000885
:104A20002DE9F0410546D0F8B00001270668C468BA
:104A300095F85500002854D1602201212046FEF748
:104A40007DFA206A40F001002062206A20F0040014
:104A5000206200206063D5F8B000007C012802D0FD
:104A600002280DD019E0102211462046FEF766FA02
:104A7000206A20F010002062206A40F040000BE025
:104A8000202210212046FEF759FA206A40F010003B
:104A90002062206A20F04000206270224FF4807172
:104AA0002046FEF74BFA206A20F480702062206ACC
:104AB00020F480602062606820F0700040F02000E8
:104AC0006060D5F8B000F168407941F48011F16080
:104AD000F16C47EA002141F0400141EA8030C5F81D
:104AE000880006486860064868610648E86006482D
:104AF000A86085F85570BDE8F0810000594B0008AA
:104B0000334D00089D4C0008B14B00080246B0F838
:104B100078004843010CA2F84810D2F8B010D2F83F
:104B200088000968C864D2F8B010B2F84800C968B3
:104B30004863D2F8B000C068006910F0010018BFE7
:104B40000120B2F84E10012918BF70470120002142
:104B5000A2F84E107047000010B4D0F8B0206FF0EB
:104B60000103D2681361036FD0F8B0000068D0F879
:104B70008020DFF838C09A1A47F6FF746245D8BF24
:104B8000624603DDA242A8BF47F6FF7212B2D0F818
:104B90008400181A6045D8BF604603DDA042A8BF54
:104BA00047F6FF700A80488010BC70470180FFFF05
:104BB000F0B4D0F8B02090F8AE30D1681268012B74
:104BC0001ED04B6C23F480634B64D0F8B03093F864
:104BD00010C0BCF1020F13D1D3F814C01B8BCCF85A
:104BE0002830D0F8B030D3F81CC01B8CCCF828305B
:104BF000D0F8B0C0DCF82430BCF828C0C3F828C016
:104C00004B6C23F400434B64D0F8B0301B68D3F8EE
:104C100004C02CF0400CC3F804C0936843F0200398
:104C20009360D36C00254FF0400C4123D36493680C
:104C300043F008039360174B01F118049B79234458
:104C40001E68154CA7790824BC40A6431E60CE6997
:104C500048F6FF773E40CE61CE6946F4E046CE612D
:104C60004FF6FF760E640D641968214319601168D0
:104C700011F0400FFBD0D0F8B0100968C1F800C0A7
:104C8000D0F8B0000068416841F040014160F0BCDC
:104C9000704700007073000879730008D0F8B010F6
:104CA0000023C96880F850300A6812F0100FFBD159
:104CB0000A6812F0100FFBD00B6301224A63D0F890
:104CC000B030D0F888201B68DA646FF001020A6106
:104CD0000A6912F0010FFBD04A6C42F480624A6408
:104CE0004A6C42F400424A64D0F8B020137C022B94
:104CF00018BF7047096A40F2555319425169128B27
:104D00000BD08A61D0F8B020D169128C8A61D0F8BA
:104D1000B010486A098D816170478A62D0F8B0107E
:104D2000CA69098C9162D0F8B010486A098D816215
:104D30007047D0F8B0100022C9684A63921E0A6119
:104D40000A6912F0010FFBD04A6C42F400424A6437
:104D5000D0F8B0100A7C022A18BF70474A69098B44
:104D60009161D0F8B010CA69098C9161D0F8B01087
:104D7000486A098D81617047D0F8B020B0F878108A
:104D8000D268491E116400F0A5BAF0B4D0F8B06042
:104D9000B0F87830B0F848103489A3EB010C002249
:104DA0001FFA8CF5A54208D90421A0F8461099B243
:104DB000491E89B2D0F890C014E0B0F84A70D0F81B
:104DC000A0C0CF1BBFB2B7EB450F84BF7389C91A10
:104DD00007D8214489B2994204D34022C1EB430150
:104DE000491E89B26244C267F2681164F0BC00F0E7
:104DF00071BAF0B4D0F8B060B0F87830B0F84A10BA
:104E00003489A3EB010C00221FFA8CF5A54208D9C6
:104E10000421A0F8461099B2491E89B2D0F890C07A
:104E200014E0B0F84870D0F898C0CF1BBFB2B7EB11
:104E3000450F84BF7389C91A07D8214489B29942A2
:104E400004D34022C1EB4301491E89B26244C267C8
:104E5000F2681164F0BC00F03DBAF0B4D0F8B06074
:104E6000B0F87830B0F84A103489A3EB010C002276
:104E70001FFA8CF5A54208D90421A0F8461099B272
:104E8000491E89B2D0F890C014E0B0F84C70D0F848
:104E90009CC0CF1BBFB2B7EB450F84BF7389C91A43
:104EA00007D8214489B2994204D34022C1EB43017F
:104EB000491E89B26244C267F2681164F0BC00F016
:104EC00009BAF0B4D0F8B060B0F87830B0F84C104F
:104ED0003489A3EB010C00221FFA8CF5A54208D9F6
:104EE0000421A0F8461099B2491E89B2D0F890C0AA
:104EF00014E0B0F84A70D0F894C0CF1BBFB2B7EB43
:104F0000450F84BF7389C91A07D8214489B29942D1
:104F100004D34022C1EB4301491E89B26244C267F7
:104F2000F2681164F0BC00F0D5B9F0B4D0F8B0600C
:104F3000B0F87830B0F84C103489A3EB010C0022A3
:104F40001FFA8CF5A54208D90421A0F8461099B2A1
:104F5000491E89B2D0F890C014E0B0F84870D0F87B
:104F600090C0CF1BBFB2B7EB450F84BF7389C91A7E
:104F700007D8214489B2994204D34022C1EB4301AE
:104F8000491E89B26244C267F2681164F0BC00F045
:104F9000A1B9F0B4D0F8B060B0F87830B0F84810EB
:104FA0003489A3EB010C00221FFA8CF5A54208D925
:104FB0000421A0F8461099B2491E89B2D0F890C0D9
:104FC00014E0B0F84C70D0F8A4C0CF1BBFB2B7EB60
:104FD000450F84BF7389C91A07D8214489B2994201
:104FE00004D34022C1EB4301491E89B26244C26727
:104FF000F2681164F0BC00F06DB900002DE9F00119
:10500000D0F8B0100024CA68096880F8504090F8C1
:10501000AE30012B1FD0536C23F480635364D0F85F
:10502000B03093F810C0BCF1020F14D1D3F814C003
:105030001B8BCCF82830D0F8B0C0DCF81C30BCF8A2
:1050400020C0C3F828C0D0F8B0C0DCF82430BCF8C9
:1050500028C0C3F828C0536C23F4004353648B6802
:1050600023F03F0323F0004343F020038B608B6861
:1050700013F0080FFBD14B6823F040034B60D0F8CE
:10508000B00002234A4F0079092803FA00FC4CEAD9
:10509000806C00EB400591BF4CEA055C07EB0555C1
:1050A0004CEA050C4CF0007C03FA00F545EA8065FB
:1050B00000EB400691BF45EA065507EB065635431F
:1050C00045F0007503FA00F646EA806600EB4008FA
:1050D00091BF46EA085607EB085846EA080646F02C
:1050E000007603FA00F343EA806300EB400091BFCF
:1050F00043EA005007EB0050184340F0007000F006
:10510000F8404FF0F87303EA961340EA03004FF4B7
:10511000F82640F0400006EA153540EA05004FF455
:10512000F85505EA9C4C40EA0C00D1F84CC04FF011
:10513000400340F001001F4D0CEA050C40EA0C0052
:10514000C864886820F03F0020F0004040F008006C
:105150008860194802F1180C807960440568DFF80E
:105160005CC09CF806604FF0080C0CFA06FC25EABF
:105170000C050560D56948F6FF7605EA0605D56198
:10518000D56945F4E045D5614FF6FF7515641464A3
:10519000026842EA0C020260086810F0400FFBD07F
:1051A0000B60486840F040004860BDE8F00170477F
:1051B000000020FE00200882707300087973000848
:1051C000D0F8B0100022931EC96880F850200B61FF
:1051D0000A6912F0010FFBD00B6190F85520012AEB
:1051E00022D0B0F878205208C1F83420B0F87820E6
:1051F00052088A63B0F878205208CA63B0F8782061
:10520000521F0A640A6912F0010FFBD04A6C42F483
:1052100080624A644A6C42F400424A64D0F8B0208A
:10522000137C022B08D025E001224A63D0F8B0306D
:10523000C26F1B68DA64D9E7096A40F25553194214
:105240005169128B0BD08A61D0F8B010CA69098CF1
:105250009161D0F8B020516A128D8A610AE08A62A9
:10526000D0F8B010CA69098C9162D0F8B0104A6ABF
:10527000098D9162C16FD0F8B0000068C1647047B9
:1052800054307047D0F8B0100122C96880F850201F
:10529000D21E0A6100224A638A63CA630A6912F055
:1052A000010FFBD04A6C42F400424A64D0F8B010BF
:1052B0000A7C022A18BF70474A69098B9161D0F8AD
:1052C000B010CA69098C9161D0F8B010486A098D94
:1052D0008161704730B40146D0F8B000C268B1F8BF
:1052E00048005063B1F84A009063B1F84C00D063B5
:1052F000106C02F1180C83B216488079604404687F
:10530000DFF854C09CF806504FF0080C0CFA05FC6E
:1053100024EA0C0404604FF6FF741464046844EA41
:105320000C0CC0F800C01364D1F8B000CB6F00685B
:10533000C364106910F0010018BF0120B1F84E20BD
:10534000012A1CBF30BC704701200022A1F84E206A
:1053500030BC70477073000879730008204A10B49D
:1053600052F8201002230C6809798B4043EA8163CC
:1053700001EB410C092991BF43EA0C51194901EB9A
:105380000C51194388BF41F0007100234FF4407C59
:105390009CFAACFCBCFA8CFC23FA0CF304EB830300
:1053A000D3F830C001F0F8412CF4F86C4CEA1151FC
:1053B000196352F8201009680B6C8B6823F03F03C7
:1053C00023F0004343F004038B6052F82000006890
:1053D000016811F0040FFBD0006C10BC80B2704764
:1053E00058080020000020FE10B50E4C60780128FF
:1053F00018BF10BD2078FFF7B1FF60800146022082
:105400006070094A207852F83030002B08BF10BD78
:105410004FF0000C02EBC00284F801C05268BDE8F6
:10542000104018473A0600206808002070B4FF2199
:10543000DFF8F8C0047900225CF8223013B904299F
:1054400088BF11461D79A54205D11B680568AB428E
:1054500004BF11460422521CD2B2042AECD3042900
:1054600060D2334B4CF82100002243F8312002680F
:10547000936813F0010F14D1936823F03F0323F0D6
:10548000404343F0004393600268936813F0004F79
:10549000FBD1936823F03F0323F0004343F0010363
:1054A00093600268136B23F00F03136302794FF0CC
:1054B000020C092A0CFA02FC03684CEA826C02EB2B
:1054C000420298BF4CEA025206D91A4C04EB02522F
:1054D0004CEA020242F000724FF00074D0F808C0AB
:1054E00094FAA4F402F00070B4FA84F4E04003EB00
:1054F0008000446902F0F8734FF0F87292FAA2F556
:10550000B5FA85F592FAA2F223FA05F50726B2FA62
:1055100082F206FA05F523FA02F2AC430CFA02F223
:105520002243426170BC08467047000058080020C2
:1055300068080020000020FE002141604180816059
:10554000C16001210161704790F84800704701EB8C
:10555000410100EB81008089704701EB410100EBC4
:105560008100B0F90E00704701EB410100EB8100B2
:10557000B0F91000704701EB410100EB810082811E
:10558000704701EB410100EB8100C281704701EBE4
:10559000410100EB8100028270472DE9F0470026AF
:1055A0000446008B3546B04637464FF6FF79002853
:1055B00016D994F83400FFF7D1FE48450DD0002FDE
:1055C00004BF05462E4605D0A84238BF0546B04266
:1055D00088BF0646791CCFB28044208BB842E8D8F9
:1055E000218BA8EB0600401B891EB0FBF1F01FFACF
:1055F00080FCCC452BD094F8330004EB4000A0F89D
:105600001EC0258B0020A5B104F11C0115F0010F6F
:1056100018BF31F8020F0023C5F3470242B14E888C
:10562000521E304431F8046F12F0FF023344F6D1B9
:105630001844B0FBF5F0E080A4F804C094F83300FF
:10564000691E8842B4BF401C002084F83300E08803
:10565000618B884288BF022004D8A18B81428CBF15
:10566000042000202081BDE8F08710B504460C30EE
:10567000FFF7DCFE84F83400608BA18B08444108FE
:10568000208BA0B1002210F001001CBFE183012299
:10569000238B83420BDD04EB4203521CD98304EBC2
:1056A0004203801CD983238B521C8342F3DCA180EC
:1056B000E180002084F8330010BDB0F90400704789
:1056C000B0F900007047B0F90410B0F90C00C1EB5C
:1056D000C13191FBF0F000B2704730B4B1F9005025
:1056E000012490F810C00023827A002DBABF6942CD
:1056F00089B2098885898D4238BF0123C5898D42C9
:1057000088BF0123B0F908100029BABF494289B205
:105710000189458A8D4228BF002B04D062453CBFD9
:10572000511CCAB202E0624538BF0022624508BF80
:1057300000248272204630BC704770B50546007860
:1057400000280CBFAC686C68E968012904D9AA6913
:10575000A1F10101144405E005D169884FEA014433
:105760004FF00001E960012805D0E01704EB10407C
:105770000014AC6070BDE01704EB104006146869BB
:10578000FFF79BFF301A01B22869FEF7A3FB010463
:10579000C5E9014170BD0178012918BF7047006952
:1057A0000021FEF78FBB30B4047801235CB1D0F840
:1057B00004C0C58B4FEA2C4C8D42A4BFB0F92450D5
:1057C000A94217DA14E0D0F808C04FEAEC750CEBE8
:1057D000154CC58C4FEA2C4C8D4205DAB0F9285097
:1057E0000023A9421DDA03E0B0F92850A94208DAE3
:1057F000002316E0058CA942BCBFB0F922508D42AF
:10580000F6DB8AB14180848BA1EB0C0162434FF43B
:105810007A74B2FBF4F2521C090491FBF2F1C260FB
:10582000816130BC184670470904012C14BF8160A7
:1058300041600021C160F3E710B504464069FFF7FD
:105840003CFF0004606010BD0146C28D098E62F30A
:105850000F0061F31F407047C08B70474068C1174D
:1058600000EB114000147047B0F92C007047B0F9FC
:105870002400704740697047C0E9041290F82A106C
:105880000170818D09044160C18D0904816000218E
:105890004180C1608161704701700021C160704723
:1058A00002780021012A01D1C16001210846704718
:1058B000027800210B2A04D1092101700021818086
:1058C000012108467047B0F802C003784CEA010C89
:1058D0002CEA02024280B0F804C00A2B4CEA010113
:1058E000818005D012B10A2101700B46184670471D
:1058F000002AFBD10B2101700B46F7E78188408815
:1059000041EA0040704700787047002101704180F3
:1059100081807047024600201378132B6AD2DFE89B
:1059200003F00D263B3E575C6164676E69690A2C83
:105930003136484D5200002965D05BE003291CBF79
:1059400001290C295FD0072908BF704751880A2B0D
:1059500041F080015180918841F08001918051880F
:1059600053D0002914BF0A217047117070470729CE
:105970001CBF0D290E2946D03CE00E2918BF07296F
:1059800041D037E00F2918BF07293CD032E0022967
:1059900018BF072937D02DE0072934D02AE007297E
:1059A00018BF10292FD004291CBF112901292AD082
:1059B00020E0112918BF072925D01BE0122918BFA4
:1059C000072920D016E0042918BF07291BD011E0B1
:1059D000052918BF072916D00CE0062918BF07298A
:1059E00011D007E007290ED004E008290BD001E010
:1059F000092908D0032914BF01297047A3E700290A
:105A000018BF0C29F6D10120AFE7002908BF0B21F0
:105A1000ABD0704710B5084C2078022805D1FBF7B1
:105A20008DFFFCF7C3FD00202070C0B2401C207029
:105A3000BDE81040FDF7AABF3E06002014480168EB
:105A400041F4700101601348016841F001010160F7
:105A50004168114A11404160016821F4102121F090
:105A600080710160016821F480210160416821F4A6
:105A7000FE014160C16A21F00F01C162016B074A5A
:105A800011400163002181600549C003086070472F
:105A900088ED00E0001002400CC07FF8CCFC00FF55
:105AA00008ED00E010B50F4CD4F8B000C0680169F3
:105AB00011F0800F05D06FF0800101612046FEF7E4
:105AC00089FBD4F8B000C0680169C1F3002129B195
:105AD0006FF4807101610348FEF762FBBDE810407E
