:020000040800F2
:10000000480D0020656D0008896D0008D56900085D
:100010008D6D0008916D0008956D000800000000CE
:10002000000000000000000000000000996D0008C2
:100030009D6D000800000000A16D0008336A0008F3
:10004000A56D0008A96D0008AD6D0008B16D000830
:10005000B56D0008B96D0008BD6D0008C16D0008E0
:10006000C56D0008C96D0008CD6D0008D16D000890
:10007000D56D0008D96D0008DD6D0008E16D000840
:10008000E56D0008E96D0008DD680008ED6D000809
:10009000F16D0008F56D0008F96D0008FD6D0008B0
:1000A00009690008F7680008016E0008056E00087D
:1000B000456900080000000000000000096E00080B
:1000C0000D6E0008116E0008156E0008000000009B
:1000D000196E00081D6E000877690008216E00087F
:1000E000576A0008256E0008296E0008000000000D
:1000F0000000000000000000000000000000000000
:100100000000000000000000000000002D6E00084C
:100110000000000000000000316E00080000000038
:1001200000000000000000000000000000000000CF
:1001300000000000000000000000000000000000BF
:10014000356E0008396E0008000000000000000055
:10015000000000000000000000000000000000009F
:100160003D6E0008416E0008456E0008496E0008AB
:100170004D6E0008000000000000000000000000BC
:1001800000000000516E00082DE9F041D0F8B010D9
:10019000CD6A4E6BCF6B4C6CCA6881B00B68D3F8DC
:1001A00004C02CF0040CC3F804C0002D4FF0040C64
:1001B000C3F800C0D3F804C02CF0200CC3F804C06E
:1001C0004FF0200CC3F800C0D1F850C0DCF804E0B8
:1001D0002EF0040ECCF804E04FF0040CD1F850E0FF
:1001E000CEF800C0D1F850C0DCF804E02EF0200EAC
:1001F000CCF804E04FF0200CD1F850E0CEF800C06D
:10020000D2F800C04FEA5C0C4FEA4C0CC2F800C0B8
:1002100066D091F830C0BCF1010F1ED0D5F800C0F7
:100220000CF0700CBCF1400F17D1DFF8B0CCDCF84B
:100230000CE0B1F84A806FF30F1E48EA0E0ECCF8BE
:100240000CE0DCF804E04EF0010ECCF804E0DCF841
:1002500000E04EF0010ECCF800E04FF0000EADF8DB
:1002600000E0ADF800E0BDF800C0BCF57A7F2BD20D
:10027000BDF800C00CF1010EADF800E0BDF800C003
:10028000BCF57A7F20D2BDF800C00CF1010EADF8AC
:1002900000E0BDF800C0BCF57A7F15D2BDF800C003
:1002A0000CF1010EADF800E0BDF800C0BCF57A7F9E
:1002B0000AD2BDF800C00CF1010EADF800E0BDF8A7
:1002C00000C0BCF57A7FD3D3D5F800C04CF0010C48
:1002D000C5F800C0D5F800C04CF0004CC5F800C00F
:1002E0003EB1356845F001053560356845F000459B
:1002F00035603FB13D6845F001053D603D6845F022
:1003000000453D60002C53D091F84850012D15D088
:10031000256805F07005402D10D1DFF8C07BFD6821
:10032000B1F84C606FF30F153543FD607D6845F003
:1003300001057D603D6845F001053D600025ADF893
:100340000050ADF80050BDF80050B5F57A7F27D2C7
:10035000BDF800506D1CADF80050BDF80050B5F56B
:100360007A7F1DD2BDF800506D1CADF80050BDF86D
:100370000050B5F57A7F13D2BDF800506D1CADF872
:100380000050BDF80050B5F57A7F09D2BDF8005095
:100390006D1CADF80050BDF80050B5F57A7FD7D38D
:1003A000256845F001052560256845F00045256074
:1003B0006FF08004146191F82A4014B16FF48074D6
:1003C0001461D46844F08004D4609C6824F04054E4
:1003D0009C609D68DFF8AC4C254045F080559D60E1
:1003E0000025ADF80050ADF800504FF6E855BDF8C7
:1003F0000060AE4280F03480BDF80060ADF800606F
:10040000BDF80060761CADF80060BDF80060AE423B
:1004100026D2BDF80060ADF80060BDF80060761C23
:10042000ADF80060BDF80060AE4219D2BDF80060C2
:10043000ADF80060BDF80060761CADF80060BDF856
:100440000060AE420CD2BDF80060ADF80060BDF8AF
:100450000060761CADF80060BDF80060AE42CBD302
:100460009D68DFF8246C354045F000459D609D682F
:10047000ED0FFCD19D682C4044F001049C601C6B86
:10048000240924011C63DC6C4D790C79AD0345EA29
:10049000042444F04104C0F89040DC6C0D794C79A0
:1004A000AD0345EA042444F04104C0F89440DC6CF8
:1004B0008D790C79AD0345EA042444F04104C0F879
:1004C0009840DC6C0D798C79AD0345EA042444F046
:1004D0004104C0F89C40DC6C8D794C79AD0345EA51
:1004E000042444F04104C0F8A040DC6C4D798C79C0
:1004F000AD0345EA042444F04104C0F8A440DC6C98
:100500000C79240244F04004C0F88040DC6C4C7943
:10051000240244F04004C0F88440DC6C897909026C
:1005200041F04001C0F88C10D96C4121D964996820
:1005300041F00801996002F1180151F8044F24F4C8
:1005400000640C604FF6FF741464002414640A689D
:1005500042F400620A6019684906FCD5402119601E
:10056000596841F04001596080F8AD4080F8AC40D6
:10057000A0F85C4001B0B0F86410A0F85E10BDE8CF
:10058000F0810000F0B5044681B0D4F8B000DFF887
:10059000FC1AC5680020E0662067606784F8A80040
:1005A0004FF6FD77286A084028620FF251206060FC
:1005B0000FF23950A061E06120626062A062E062E7
:1005C000D4F89000E067204600F077F9D4F8B00046
:1005D000C0792F61401C400800EB0016B6B2002025
:1005E00094F8A81010290ED229698907F8D5401C63
:1005F00080B2B0422F61F3DB94F8A8101029EFD23B
:100600000120A4F84E00204600F0B4F9002084F840
:10061000A8000FF229206060D4F88C00E067204623
:1006200000F04BF92F61002094F8A81010290ED289
:1006300029698907F8D5401C80B2B0422F61F3DBED
:1006400094F8A8101029EFD20120A4F84E002046FB
:1006500000F090F9E06E0009E066206F0009206765
:10066000606F000960670FF2750060600FF28D40E7
:10067000A0610FF2F540E0610FF2595020620FF2D5
:10068000C15060620FF22560A0620FF28D60E062DF
:10069000D4F89000E0674FF2F770A9690140A961B2
:1006A000E9690840E861B4F878006863B4F8780054
:1006B000A863B4F87800E86340F60800A96901432C
:1006C000A961E9690843E86140F25551286A084385
:1006D000286201B0002084F8AE00F0BD70B4D0F8FC
:1006E000B030DB686FF001021A61D0F8B0201368F7
:1006F000D3F88020D3F8843090F84640052C92B28D
:100700009BB26CD8DFE804F0214747030321C56E94
:10071000032C0CBFEE1AAE1ADFF87459AE42B8BF04
:100720000D8005DBB6F5004FA8BF47F6FF760E80BB
:10073000032C066F0CBFB21AF21AAA424CDBB2F5B8
:10074000004F4BDB47F6FF7248E0056F052C0CBFEE
:10075000EE1AAE1ADFF83859AE42B8BF2E4604DBA7
:10076000B6F5004FA8BF47F6FF764E80052C466FC2
:100770000CBFB21AF21AB1F902305242D21AB2F5D3
:10078000004FA8BF47F6FF7203DAAA42B8BF0D8038
:1007900025DB0A8023E0C56E022C0CBFEE1AAE1AD0
:1007A000DFF8EC58AE42B8BF0D8005DBB6F5004F60
:1007B000A8BF47F6FF760E80022C466F0CBFB21A18
:1007C000F21AB1F900305242D21AB2F5004FACBF62
:1007D00047F6FF72AA4201DA4D8000E04A800A889B
:1007E000A0F856204A88A0F85820B1F9002049887E
:1007F0005242511AA0F85A1070BC7047D0F8B0207D
:10080000D2686FF00101116190F8A810102914D27C
:10081000D0F8B0201268C16ED2F880205118D0F8FC
:10082000B020C1661268016FD2F8842051180167A8
:1008300090F8A810491C80F8A8107047D0F8B02094
:10084000D2686FF00101116190F8A81010290CD244
:10085000D0F8B0201268416FD2F88020511841675B
:1008600090F8A810491C80F8A8107047D0F8B01074
:10087000C968012280F850206FF001020A6100224D
:100880004A638A63CA630A69D207FCD54A6C42F498
:1008900000424A64D0F8B0100A7C022A0CD10A8BBC
:1008A00049698A61D0F8B0100A8CC9698A61D0F8A8
:1008B000B000018D406A81617047D0F8B010C968FE
:1008C000002280F850206FF001020A610B69DB07FB
:1008D000FCD50A6190F855203AB101224A63D0F85C
:1008E000B0301B68C26FDA6403E0B0F878205208B9
:1008F0004A63B0F8782052088A63B0F8782052082A
:10090000CA63B0F87820521F0A640A69D207FCD57E
:100910004A6C42F480624A644A6C42F400424A647F
:10092000D0F8B020137C022B1ED1138B5269096AB8
:1009300040F2555C11EA0C0F0BD09361D0F8B01067
:100940000A8CC9698A61D0F8B0100A8D496A8A6137
:100950000AE09362D0F8B0100A8CC9698A62D0F8B4
:10096000B0100A8D496A8A62C16FD0F8B000006881
:10097000C164704730B4D0F8B020D1681268002349
:1009800080F8503090F8AE30ABB94B6C23F48063F4
:100990004B64D0F8B0301C7C022C0CD11C8B5B69F2
:1009A0009C62D0F8B0301C8CDB699C62D0F8B0300F
:1009B0001C8D5B6A9C624B6C23F400434B6494680F
:1009C000DFF8C0361C4044F0200494609468E408CA
:1009D00014F00104FAD1546824F040045460012456
:1009E000D0F8B000007984400A2844EA806404D238
:1009F00000EB400044EA005006E00A3800EB4000FB
:100A000044EA005040F00070D46CDFF888562C4067
:100A100000F0F8452C43850905F0F8752C43050BCB
:100A200005F4F825800C2C4300F4F850204340F0E6
:100A30004100D06448F6FF749068184040F0080008
:100A4000906001F1180050F8043F23F40063036044
:100A5000CB692340CB61CB6943F4E043CB614FF6D4
:100A6000FF730B6400230B64016841F400610160B3
:100A700010684006FCD540201060506840F04000EF
:100A8000506030BC7047D0F8B010C968B0F848204A
:100A90004A6301F11803B0F84A208A63B0F84C2089
:100AA000CA630A6C53F804CF2CF4006CC3F800C07E
:100AB00092B24FF6FF7CC1F840C0D3F800C04CF4AE
:100AC000006CC3F800C00A64D0F8B0301B68C26F75
:100AD000DA640969B0F84E20012A01F0010103D15E
:100AE00000220121A0F84E2008467047D0F8B0201F
:100AF000B0F87810D268491E1164C4E7F0B4D0F899
:100B0000B030B0F84850B0F878601C89771B0021ED
:100B1000BFB2BC4208D20422A0F84620B0F8782028
:100B2000531ED0F8902015E0B0F84AC0D0F8A020AD
:100B3000A5EB0C0C7F001FFA8CFC674502D25B8989
:100B4000EB1A07E063199BB2B34203D3C3EB46032E
:100B500040215B1E8918C1679BB2D0F8B010C968EC
:100B60000B64F0BC8FE70000F0B4D0F8B030B0F800
:100B70004A50B0F878601C89771B0021BFB2BC4294
:100B800008D20422A0F84620B0F87820531ED0F8EE
:100B9000902015E0B0F848C0D0F89820A5EB0C0CD8
:100BA0007F001FFA8CFC674502D25B89EB1A07E0D5
:100BB00063199BB2B34203D3C3EB460340215B1ED0
:100BC0008918C1679BB2D0F8B010C9680B64F0BC3B
:100BD00059E70000F0B4D0F8B030B0F84A50B0F89F
:100BE00078601C89771B0021BFB2BC4208D2042266
:100BF000A0F84620B0F87820531ED0F8902015E0D9
:100C0000B0F84CC0D0F89C20A5EB0C0C7F001FFA6C
:100C10008CFC674502D25B89EB1A07E063199BB233
:100C2000B34203D3C3EB460340215B1E8918C1675F
:100C30009BB2D0F8B010C9680B64F0BC23E7000089
:100C4000F0B4D0F8B030B0F84C50B0F878601C89EF
:100C5000771B0021BFB2BC4208D20422A0F8462074
:100C6000B0F87820531ED0F8902015E0B0F84AC0B4
:100C7000D0F89420A5EB0C0C7F001FFA8CFC674584
:100C800002D25B89EB1A07E063199BB2B34203D32C
:100C9000C3EB460340215B1E8918C1679BB2D0F8A5
:100CA000B010C9680B64F0BCEDE60000F0B4D0F8F9
:100CB000B030B0F84C50B0F878601C89771B002138
:100CC000BFB2BC4208D20422A0F84620B0F8782077
:100CD000531ED0F8902015E0B0F848C0D0F890200E
:100CE000A5EB0C0C7F001FFA8CFC674502D25B89D8
:100CF000EB1A07E063199BB2B34203D3C3EB46037D
:100D000040215B1E8918C1679BB2D0F8B010C9683A
:100D10000B64F0BCB7E60000F0B4D0F8B030B0F827
:100D20004850B0F878601C89771B0021BFB2BC42E4
:100D300008D20422A0F84620B0F87820531ED0F83C
:100D4000902015E0B0F84CC0D0F8A420A5EB0C0C16
:100D50007F001FFA8CFC674502D25B89EB1A07E023
:100D600063199BB2B34203D3C3EB460340215B1E1E
:100D70008918C1679BB2D0F8B010C9680B64F0BC89
:100D800081E65430704790F8AE10002902BFD0F8C9
:100D9000B0100A7C022A08D14B690A8B9A62CB698F
:100DA0000A8C9A620A8D496A8A62012180F8AC1025
:100DB00054307047D0F8B010C9684A6C42F4806271
:100DC0004A64012180F8AD1080F8AE1054307047AD
:100DD00090F8AD2000211AB10022022180F8AD2048
:100DE00090F8AC2022B1002241F0400180F8AC2004
:100DF00008467047F0B4D0F8B02090F85530D1686C
:100E00001268002B57D101F11804A34B26681E402D
:100E100046F0600626600E6A46F001060E620E6A13
:100E200026F004060E6200264E63D0F8B060367CD1
:100E3000012E0DD12668994F3E4046F4805626601B
:100E40000D6A25F010050D620D6A45F040050EE0B3
:100E5000022E0DD12668914F3E4046F40056266082
:100E60000D6A45F010050D620D6A25F040050D6212
:100E700054F8045F2B4043F0700323600B6A23F4A3
:100E800080730B620B6A23F480630B624B6823F060
:100E9000700343F020034B60D0F8B0104979D36859
:100EA00043F48013D360D26C8A0342EA012141F0FB
:100EB0004101C0F888100FF2751141600FF2F51171
:100EC00041610FF23521C1600FF2C1218160012122
:100ED00080F85510F0BC704700000000007400401E
:100EE000D0F8B01090F85520C96802B9704770B4B6
:100EF0000A68D206FCD50A68D206FCD4D0F8B02025
:100F0000D2790A6301F11803634A1D68154045F060
:100F100060051D600D6A45F001050D62D0F8B05006
:100F20002D7C012D03D10D6A45F0040504E0022D4E
:100F300003D10D6A25F004050D62B0F87850574EC4
:100F40006D084D631D68354045F4C0451D600C6A51
:100F500044F010040C62D0F8B040247C012C03D182
:100F60000C6A44F0400404E0022C03D10C6A24F023
:100F700040040C62B0F8784064088C6353F8044F66
:100F8000224042F060021A600A6A42F480720A62E9
:100F9000D0F8B020127C012A03D10A6A42F48062A0
:100FA00004E0022A03D10A6A22F480620A62B0F8DD
:100FB00078205208CA634A6842F070024A60D0F84A
:100FC000B0100968CA6822F48012CA6034494160CE
:100FD000344941613449C16034498160002180F85D
:100FE000551070BC7047B0F878205143D0F8B0204D
:100FF000090CA0F848101268D0F88810D164D0F815
:10100000B020D268B0F848105163D0F8B010C96869
:101010000969B0F84E20012A01F0010103D1002234
:101020000121A0F84E2008467047000030B4D0F8E7
:10103000B0301F4CDB686FF001021A61D0F8B020AD
:101040001268006FD2F88030C31AA34205DB47F65E
:10105000FF75AB4202DB2B4600E00D4BD2F884203B
:10106000801AA04208DB47F6FF75A84205DB284638
:101070000B80488030BC704705480B80488030BCEE
:1010800070470000C0FFFF7FC0FFFF3FAAFAFFFFCD
:101090000180FFFF002008828CFFFEFFFF8CFFFE17
:1010A000DD0600086D080008BB0800087509000887
:1010B0000280FFFFD0F8B010C96800224A636FF0C9
:1010C00001020A610A69D207FCD54A6C42F4004267
:1010D0004A64D0F8B0100A7C022A0CD10A8B496904
:1010E0008A61D0F8B0100A8CC9698A61D0F8B00062
:1010F000018D406A81617047D0F8B010C968002244
:1011000080F850200A68D206FCD40A68D206FCD5C2
:1011100000220A6301224A63D0F8B0301B68D0F87D
:101120008820DA646FF001020A610A69D207FCD5EF
:101130004A6C42F480624A644A6C42F400424A6457
:10114000D0F8B020137C022B1ED1138B5269096A90
:1011500040F2555C11EA0C0F0BD09361D0F8B0103F
:101160000A8CC9698A61D0F8B000018D406A81613A
:1011700070479362D0F8B0100A8CC9698A62D0F8BF
:10118000B000018D406A81627047000030B4D0F831
:10119000B020D168126890F8AE30ABB94B6C23F434
:1011A00080634B64D0F8B0301C7C022C0CD11C8BBB
:1011B0005B699C62D0F8B0301C8CDB699C62D0F813
:1011C000B0301C8D5B6A9C6248F6FF754B6C23F453
:1011D00000434B64D0F8B0301B685C6824F04004D6
:1011E0005C60936843F020039360D36C4123D36425
:1011F000936843F00803936001F1180353F8044F18
:1012000024F400641C60CC692C40CC61CC6944F4AB
:10121000E044CC614FF6FF740C6400240C64196840
:1012200041F40061196011684906FCD54021D0F8ED
:10123000B02012681160D0F8B0000068416841F039
:101240004001416030BC704730B581B00025044694
:10125000009514B9012001B030BD606CC00664D4A3
:10126000606C002845D1A0642065E06484F84000EB
:10127000204600F04FFC20688068C00039D420462A
:1012800000F0FEFB0546606CC00632D48DBB606C7E
:1012900020F4885040F0020060642068816821F0EA
:1012A000405181602068816841F080518160DFF8A1
:1012B0006401DFF864110068B0FBF1F000EB80011D
:1012C000480000900098A0B10098401E009000983F
:1012D00078B10098401E0090009850B10098401ED0
:1012E0000090009828B10098401E009000980028B7
:1012F000EAD120688168C90002D58068800014D5D1
:10130000606C20F0020040F010006064A06C40F0BF
:101310000100A064606C606C20F0020040F01000DE
:1013200060640125284601B030BD606CC006F2D46F
:10133000002DF0D1206881684907ECD4616C21F45C
:10134000807141F002016164816801F003010129AB
:1013500002D10068C00707D4DFF8C00001686268E6
:1013600021F4403111430160A06BE169E26801287A
:1013700014BF4FF48050002040EA41301043A2686F
:101380001043626A012A11D131B9A16A491E490488
:1013900041F48031084309E0616C21F0020141F021
:1013A00020016164A16C41F00101A164E16A01299D
:1013B00002D0226B1143084321688A6812F00C0F97
:1013C0000AD1CA68DFF858301A40CA60626BA16956
:1013D000520042EA813108432168DFF84830CA6888
:1013E0001A401043C860206901282068016B05D1AC
:1013F000226A0909521E42EA011101E009090901A4
:1014000001630020A064606C20F0020040F0010045
:10141000606487E70C06002040420F00080300507C
:10142000FDBFFFFF07C0F0FFF0B481B0024600200F
:10143000009092F84030012B08BF022000F06A8132
:10144000012382F8403013689C68640700F15A81D8
:101450004E680C681F25052E0AD206EB46077E0053
:101460001F6BB54027EA0505B4402C431C6326E0FA
:101470000A2E0BD2761F06EB46077E005F6BB54047
:1014800027EA0505B4402C435C6318E00F2E0BD20D
:101490000A3E06EB46077E009F6BB54027EA05052E
:1014A000B4402C439C630AE00F3E06EB46077E00E7
:1014B000DF6BB54027EA0505B4402C43DC631468B4
:1014C000A36813F00C0F40F086800E688D68072328
:1014D0000A2E0AD30A3E06EB4606A769B34027EA5E
:1014E0000303B5402B43A36108E006EB460667699A
:1014F000B34027EA0303B5402B43636113684C698B
:10150000DD68C5F3C1056D00AC400D696D1E032D8E
:1015100032D8DFE805F0020E1A261D6EDFF84C65A2
:1015200035400E6845EA86652C4344F000441C664D
:1015300051E05D6EDFF8346535400E6845EA86653A
:101540002C4344F000445C6645E09D6EDFF81C656A
:1015500035400E6845EA86652C4344F000449C669D
:1015600039E0DD6EDFF8046535400E6845EA8665D2
:101570002C4344F000442DE01C6E0D6804F0F84448
:10158000B4EB856F03D11C6E640064081C6613689D
:101590005C6E0D6804F0F844B4EB856F03D15C6EAB
:1015A000640064085C6613689C6E0D6804F0F8447F
:1015B000B4EB856F03D19C6E640064089C6613686D
:1015C000DC6E0D6804F0F844B4EB856F03D1DC6E7B
:1015D00064006408DC6613689C6804F00304012C52
:1015E00003D11C68E40700F192800D680124AC402F
:1015F000CD68012DD3F8B05004D025EA0404C3F817
:10160000B0401DE02C43C3F8B04007230E688D683E
:1016100014680A2E0AD3093E06EB4606A769B340B2
:1016200027EA0303B5402B43A36109E0761C06EBD0
:1016300046066769B34027EA0303B5402B4363615D
:101640000968102904D1DFF828341B681B0205E063
:10165000112905D1DFF818341B68DB0157D406E0E7
:10166000122954D1DFF808341B685B024FD4136889
:101670009C6804F00304012C02D11C68E40741D4E7
:1016800010292AD1B3F1A04F41D1DFF8E4130B6840
:1016900043F400030B60DFF8DC13DFF8DC33096888
:1016A000B1FBF3F101EB810359000091009971B393
:1016B0000099491E0091009949B30099491E009173
:1016C000009921B30099491E00910099F9B1009940
:1016D000491E00910099D1B1EAE7112909D1B3F16E
:1016E000A04F14D1DFF888130B6843F080730B60B0
:1016F0000DE012290BD1DFF878130B6843F4800357
:101700000B6004E0506C40F0200050640120002188
:1017100082F8401001B0F0BC70470000F0B481B016
:1017200002460020009092F84030012B08BF0220B2
:1017300000F09881012382F840301369002B1CBF10
:101740008B69012B19D14B68012B10D10B688C6A66
:101750001B02012C02D02343CC6A23431468DFF818
:101760001C63E56C35401D43E564D3642BE0506C8D
:1017700040F020005064012025E0146D54B9136539
:10178000D0648B698C6A5B1E012C02D02343CC6A27
:101790002343D3644B6803EB430463009B1CD46C6A
:1017A0001F259D40AC430D6805FA03F32343146DD8
:1017B000D364641E146506D11468DFF8C062E56C5A
:1017C00035402B43E36413689C68240716D40D6AE4
:1017D0004C6A002DDD6825F4401545EA445404D1D7
:1017E000CD6944EA0554DC6008E0DC60CB69012B7C
:1017F00004D1506C40F020005064012013689C68B4
:1018000014F00C0F40F097808C6A012CDC6824F0F7
:10181000007404D10D6A44EA4564DC6008E0DC60D1
:101820000B6A012B04D1506C40F020005064012061
:101830000E688D68146807230A2E0AD30A3E06EB49
:101840004606A769B34027EA0303B5402B43A361CB
:1018500008E006EB46066769B34027EA0303B54094
:101860002B43636113684C69DD68C5F3C1056D00E6
:10187000AC400D696D1E032D2ED8DFE805F0020D7A
:1018800018231D6E794E35400E6845EA86652C4357
:1018900044F000441C664EE05D6E744E35400E68A8
:1018A00045EA86652C4344F000445C6643E09D6E47
:1018B0006E4E35400E6845EA86652C4344F0004480
:1018C0009C6638E0DD6E694E35400E6845EA8665F7
:1018D0002C4344F000442DE01C6E0D6804F0F844E5
:1018E000B4EB856F03D11C6E640064081C6613683A
:1018F0005C6E0D6804F0F844B4EB856F03D15C6E48
:10190000640064085C6613689C6E0D6804F0F8441B
:10191000B4EB856F03D19C6E640064089C66136809
:10192000DC6E0D6804F0F844B4EB856F03D1DC6E17
:1019300064006408DC6613689C6804F00304012CEE
:1019400003D11C68E40700F18A800D680124AC40D3
:10195000CD68012DD3F8B05004D025EA0404C3F8B3
:10196000B0401DE02C43C3F8B04007230E688D68DB
:1019700014680A2E0AD3093E06EB4606A769B3404F
:1019800027EA0303B5402B43A36109E0761C06EB6D
:1019900046066769B34027EA0303B5402B436361FA
:1019A0000968102903D1324B1B681B0204E011297E
:1019B00004D12F4B1B68DB0151D405E012294ED115
:1019C0002B4B1B685B024AD413689C6804F0030429
:1019D000012C02D11C68E4073CD4102927D1B3F1B3
:1019E000A04F3CD122490B6843F400030B6021490E
:1019F000214B0968B1FBF3F101EB81035900009120
:101A0000009961B30099491E0091009939B300997A
:101A1000491E0091009911B30099491E0091009947
:101A2000E9B10099491E00910099C1B1EAE7112975
:101A300008D1B3F1A04F12D10D490B6843F0807368
:101A40000B600CE012290AD109490B6843F48003AA
:101A50000B6004E0506C40F0200050640120002135
:101A600082F8401001B0F0BC7047000000F0FF8326
:101A7000080300500C06002040420F00002008829E
:101A800030B5044681B02068816801F00301012966
:101A900025D10168C90722D5816801F00D0101290E
:101AA00012D1816841F00201816003202168086041
:101AB00000F09AF9054620688068C0070FD500F04D
:101AC00093F9401B0328F6D3606C40F0100060646B
:101AD000A06C40F00100A06401B0012030BD0020E6
:101AE00001B030BD9D4882B0016841F00101016044
:101AF000016801F0010100910099416841F08051B5
:101B00004160406800F0805000900098042002B0CE
:101B100000F074B910B586B001A900220023144664
:101B20001CC10CC10068B0F1A04F2DD18C480168D8
:101B300041F080510160016801F0805100910099ED
:101B4000016841F400210160016801F40021009165
:101B50000099016841F40031016001A9006800F4B6
:101B6000003000900098039207200190032002901B
:101B70007C4800F0BBF9032001900290039401A976
:101B80004FF0904000F0B2F906B010BD10B586B02D
:101B900001A90022002314461CC10CC1006872492F
:101BA00088421CD16E48816841F000518160816893
:101BB00001F0005100910099016841F40031016089
:101BC00001A9006800F400300090009803921020F2
:101BD0000190032002904FF0904000F087F906B08A
:101BE00010BD10B586B001A90022002314461CC107
:101BF0000CC100685D4988421CD15948416841F4D4
:101C000000614160416801F4006100910099016840
:101C100041F400310160006800F400300090009849
:101C200004924FF400600190022002900120039082
:101C30000C2035E0B0F1804F38D14948816841F03F
:101C400001018160816801F0010100910099016842
:101C500041F480210160016801F480210091009924
:101C6000016841F40031016001A9006800F400300E
:101C70000090009803924FF481600190022002903E
:101C80000320049001200590394800F02FF94FF40B
:101C90000040019003940220029003200490012050
:101CA000059001A94FF0904000F020F906B010BD5A
:101CB00010B586B001A90022002314461CC10CC136
:101CC00000682A49884218D12548016841F400314A
:101CD000016001A9006800F40030009000984FF402
:101CE000E0600190022002900390032004900620FF
:101CF00005904FF0904000F0F9F806B010BD10B517
:101D000086B001A90022002314461CC10CC1006842
:101D1000184988421FD11248816841F4003181601E
:101D2000816801F4003100910099016841F40031AB
:101D3000016001A9006800F400300090009803924F
:101D40000C200190049202200290072005904FF091
:101D5000904000F0CBF806B010BD00001810024013
:101D6000141002400008004800740040002C01409C
:101D7000000400480044004000B51D4881B00168DF
:101D800041F010010160032000F038F8042000F059
:101D900005F8FFF7A7FE002001B000BD30B5154DD6
:101DA000297804464FF47A70B0FBF1F012490968C3
:101DB00081B0B1FBF0F000F063F858B9102C09D2F3
:101DC000002221464FF0FF3000F025F8AC600020E3
:101DD00001B030BD012001B030BD06484168027835
:101DE00051FA82F141607047024840687047000034
:101DF00000200240F80500200C06002029490A684E
:101E00004FF6FF031A4000F0070042EA0020264A7E
:101E100010430860704730B4224B1B68C3F30223A1
:101E2000C3F10704052C28BF0F2404D20124C3F1F9
:101E30000705AC40641E1D1D072D34BF0023DB1EAB
:101E400021409940012404FA03F35B1E1A40114318
:101E50000901002807D5154A00F00F00801800F886
:101E6000041C30BC7047124A815430BC70470121B9
:101E700000F01F0291400F4A400942F820107047BD
:101E8000401EB0F1807F01D3012070470A494860AD
:101E9000F02081F8130D00208860072008600020E2
:101EA000704700000CED00E00000FA0518ED00E0BE
:101EB00000E400E000E100E010E000E000B581B0E7
:101EC00000F002F801B000BD7047081880F830201B
:101ED0007047081890F83000704700EB41004286C8
:101EE000704700EB4100B0F9320070472DE9F04F28
:101EF00081B00C685F4BDFF88081DFF880910022B1
:101F0000002C4FF00F0A4FF0010B00F0A9800C6875
:101F10000BFA02FC1CEA040E00F09D804C68022CB7
:101F200018BF122C0ED1D40800EB840402F0070570
:101F3000266AAD000AFA05F7BE430F6907FA05F5F0
:101F4000354325625400032506680F79A540ED430B
:101F500007F003072E40A7403E4306604E68012E5F
:101F600018BF022E03D0112E18BF122E10D1866872
:101F7000CF682E40A7403E438660466826EA0C0C98
:101F80004E68C6F30016964046EA0C0CC0F804C032
:101F9000D0F80CC005EA0C0C8D6805FA04F444EA8C
:101FA0000C04C4604C68E40055D5D9F8004044F0F6
:101FB0000104C9F800404FEA920CD9F8005005F02E
:101FC00001040094009C58F82C5002F00304A40073
:101FD0000AFA04F6B543B0F1904F08BF00260ED0C0
:101FE000274EB04208BF012609D0264EB04208BF96
:101FF000022604D0244EB0420CBF0326052606FA62
:1020000004F42C4348F82C406FEA0E0C1C684D6811
:102010000CEA0404ED0348BF4EEA04041C605C684B
:102020004D680CEA0404AD0348BF4EEA04045C604A
:102030009C684D680CEA0404ED0248BF4EEA0404B3
:102040009C60DC680CEA040C4C68A40248BF4EEAB1
:102050000C0CC3F80CC0521C0C68D4407FF457AF72
:1020600001B0BDE8F08F00000AB181617047816264
:1020700070470000000401400800014018100240B1
:102080000004004800080048000C00482DE9F04317
:102090000446DFF8F866DFF8F876DFF8F886DFF850
:1020A000F896002086F8780081B0DFF8F006C6F8D0
:1020B000A4000D46DFF8E806C6F89C00FEF764F8B9
:1020C00000F08AFB06F1C80000F0B8FB384600F0CB
:1020D00041FCC6F88870DFF8CC06DFF8CC76C6F88D
:1020E0008400384600F096FCD6F88810D6F88400B4
:1020F0003A4601F020F8404600F02CFC484600F03B
:1021000029FCDFF8A806C6F89400C6F88C80C6F84B
:10211000909001F0C5F8DFF89806D6F89410DFF833
:102120009486C6F8A000C0F81011C0F80C614046B3
:1021300001F06CF9DFF88006C6F8A800C6F89880B0
:1021400001F0B0F90FF28860006830607060F060F4
:10215000306100210020F0830FF278600068C6F83B
:102160001600C6F81A0000203084D6F88C0000F063
:1021700005FCD6F89000002100F000FCD6F88400A1
:1021800000F0EDFFD6F89C0001F051FA012086F82E
:102190002400D6F8840001F06FF83061D6F884008E
:1021A00001F06AF800903346BDF80200D6F88420AA
:1021B000B08206F1C80106F1AC00C6F8800001F05B
:1021C00058FAD6F8840001F047F80146D6F88000A6
:1021D000002201F058FAD6F8800020603764D6F863
:1021E0008800B062D6F88C00F062D6F890003063B8
:1021F00000207063D6F89C00B0630020F063706428
:10220000B064D6F88400F06406F1C8003065D6F8F2
:1022100098007065D6F89400B0650020F0653066CF
:10222000D6F8A00070660020B066F0663067706770
:1022300006F12800286001B0012086F87800BDE88A
:10224000F08310B5DFF8444594F8780050B30128C6
:102250001BD1B4F87A0018B1B4F87A00401E02E03D
:1022600000F046F80120A4F87A00B4F87C0020B110
:10227000B4F87C00401EA4F87C00B4F87E0020B1C5
:10228000B4F87E00401EA4F87E0094F8780001287F
:1022900004D1002000F08CF901F04CFBBDE81040A7
:1022A00001F0BDBB10BD10B5DFF8E04494F8780034
:1022B00001281BD1B4F87A0018B1B4F87A00401E96
:1022C00002E000F015F80120A4F87A00B4F87C00D0
:1022D00020B1B4F87C00401EA4F87C00B4F87E0065
:1022E00020B1B4F87E00401EA4F87E0010BD0000AE
:1022F00030B581B00020ADF8000000A9DFF8A85487
:10230000DFF88844284600F04EFCD4F8A00001F025
:10231000D4FB04F1C80000F00BFBC01E0F2800F234
:10232000C480DFE800F0085C5E7686B8BDC2C2C239
:10233000C2C2C2111D27D4F89C00FEF797FA1420E0
:10234000A4F87C001021ACE0B4F87C00002840F038
:10235000AC80D4F89C00002101F06BF91121A0E0C1
:10236000D4F89C00012101F064F9002800F09D8060
:10237000122196E0284600F0C2FB042104F1C800B7
:1023800000F062FA002800F090800FF244400068EC
:1023900020606060E060206100210020E0830FF297
:1023A00034400068C4F81600C4F81A0000202084E5
:1023B000D4F88C0000F0E2FAD4F89000002100F08C
:1023C000DDFAD4F8840000F0CAFED4F89C0001F0D5
:1023D0002EF9D4F89C00FEF770FA01B030BD05214B
:1023E0005FE094F8240028B9D4F8840000F00BFFD3
:1023F000E0832082062104F1C80000F025FAD4F819
:10240000840000F044FFD4F8800001F070F901B0BE
:1024100030BDD4F8800001F06AF994F82400002857
:1024200043D1D4F8840000F0EEFEE083208201B0B6
:1024300030BDD4F89C00FEF79DFA0FF2943000688E
:1024400020606060E060206100210020E0830FF2E6
:1024500084300068C4F81600C4F81A0000202084F4
:10246000D4F88C0000F08AFAD4F89000002100F033
:1024700085FAD4F8840000F072FED4F89C0001F0D4
:10248000D6F8D4F8A00001F049FB4FF44870A4F846
:102490007E00082105E0B4F87E0030B9092100E093
:1024A000002104F1C80000F0CFF901B030BD10B533
:1024B0000FF21C310FF21C32DFF8D03209681268BB
:1024C000262414FB003421606160E1602161C4F8BE
:1024D00016200021E183C4F81A20218403EB800434
:1024E000D4F88C0000F04AFAD4F89000002100F0F3
:1024F00045FAD4F8840000F032FED4F89C00BDE820
:10250000104001F094B8F0B583B0A7489F4C00F09C
:1025100024FBD4F8840000F020FE01F03BFB0546CC
:10252000D4F89C0002A900F0C5FF029801F06EFBF0
:102530000646294601F089FB0190BDF90410B4F963
:102540001000411AD4F88C0000F023FAADF8000016
:10255000BDF90610B4F91200411AD4F8900000F049
:1025600018FAADF8020000980099C4F81600D4F8E3
:10257000A40001F031FD0090294601F0D5FB07468B
:10258000D4F89C00394600F097FF02992160012899
:1025900001996660E160C4F81A70258405D10022B3
:1025A000012104F1C80000F0ABF9002003B0F0BD38
:1025B0002DE9F0410446754E06EB8408D8F89800E2
:1025C00000F035FF0746D8F89C0001F050F80743AB
:1025D00024B9D6F8940000F09DFE074304EB4400B4
:1025E00006EB4005FA4392B2394605F1C80000F007
:1025F00087F905F1C80000F09BF90A2803D00B28E1
:102600000ED0BDE8F081D8F89C0001F010F820460B
:10261000FFF74DFFD8F8A000BDE8F04101F07EBA09
:10262000D8F89C00BDE8F04101F001B810B5574C56
:10263000D4F89C00FEF79EF904F1C800BDE81040F4
:102640000022802100F05CB970B45C485C4981B024
:10265000C0F800140822C0F80024C0F800144FF499
:102660008062D0F8001400914FF4004400994FF4B8
:102670008231C0F80014C0F80024C0F800144FF4F0
:102680008056D0F800340093009B4FF4C0330360B1
:10269000046003604FF4807403680093009B494B0F
:1026A0000360046003604FF4007403680093009BB0
:1026B0004FF481330360046003604FF400640368E7
:1026C0000093009B4FF4843303600460036005684B
:1026D0000095009D01600260016005680095009D05
:1026E0004FF48835C0F80058C0F80068C0F80058AA
:1026F000D0F800580095009DC0F80038C0F8004898
:10270000C0F80038D0F800380093009BC0F80018DB
:10271000C0F80028C0F800180222D0F80018009174
:10272000012300992849016002600160026800925B
:10273000009A4FF001120260036002600368009388
:10274000009BC0F800280123C0F80038C0F800281A
:10275000D0F800280092009AC0F800180222C0F8B1
:102760000028C0F800180422D0F800180091009941
:102770001649C0F80018C0F80028C0F80018D0F8B2
:1027800000080090009801B070BC7047E40600207B
:102790002C0500205805002084050020040300209B
:1027A00050020020C8040020B8030020900400203C
:1027B0003C010020B0050020D80500201C00004886
:1027C00008000100000101000200010004000100F6
:1027D00000000000000000001649174881B00A6898
:1027E000D20712D40A6842F001020A600A6802F0B5
:1027F00001020092009A026942F001020261086837
:1028000040084000086001B070470168026822F08B
:10281000700242F02002026001F07001026942F091
:1028200001020261026822F070021143016001B0EE
:10283000704700BF1C1002400400004000210170DE
:10284000418081807047000010B404780023122C6E
:102850000DD8DFE804F0202648324246484A4C5062
:102860000C0C0A2C2E303C3E4000002946D0032997
:102870001CBF012907290BD0418841F0800141800C
:102880000A2C818841F08001818001D00A210170E9
:1028900010BC18467047032930D001292CD10123E0
:1028A000F5E7072918BF0D2928D00E2920E00E29A9
:1028B00014E00F2912E0022910E0072918BF10299F
:1028C0001CD0042918BF112918D0012910E01129A2
:1028D00004E0122902E0042900E0052903D10123C4
:1028E000D5E706290AD0072902E0082900E00929CE
:1028F000BDD10123CBE709B10C29B8D10123C6E72B
:10290000B0F802C0037841EA0C0C2CEA0202B0F8DD
:1029100004C041EA0C010A2B4280818002D12AB90D
:102920000B2101E012B10A2101700B4618467047D5
:1029300000787047027800210B2A04D10921017028
:10294000002181800121084670478188408841EA42
:1029500000407047018881804188C180018C41849A
:10296000002181608162704781807047C18070471B
:10297000B0F904007047B0F90600704781607047F5
:10298000008B7047408B704741847047B0F922003C
:102990007047F0B4B0F90450B0F91430B0F91640F3
:1029A000B0F9066000224D430EB9002114E087689B
:1029B0004E43F11906D5012FA8BF012E06DB6FF09B
:1029C000004103E0002F44BF002E1149C6688E422B
:1029D000A6BF0669B142314681600E46818B45FA39
:1029E00001F7C18B46FA01F5E9198B4206DA5A1A4A
:1029F00092191946826008B2F0BC7047A142BCBF70
:102A0000621A21469219826008B2F0BC7047000039
:102A10000100008030B4C27AC3898489416A53437B
:102A20001B0414FB02F2046A240C9B0C5200A0F855
:102A300096400BB9962306E003EB430542F210746F
:102A40006B00B4FBF3F3A0F894300625B0F8943093
:102A5000B0F89640A0F8862063434FF47A7493FB55
:102A6000F4F3A0F8843092B2B0F88430046A1B0406
:102A7000C0F88C30B4FBF5F4838AB4FBF3F424047F
:102A8000C0F88840046A04EB84056C000625B4FB9A
:102A9000F5F4B4FBF2F2C0F89020428B93FBF2F213
:102AA000521EA0F89820012280F84020B0F884201F
:102AB0008A624A6942F001024A6100220A610A6898
:102AC00042F004020A60CA6842F00202CA60CA68A0
:102AD00042F00102CA6000224A620A6A42F0010220
:102AE0000A620A6842F001020A60017F012904DBE0
:102AF00030BC4900463001F09BBA30BC7047416A97
:102B0000CA6822F00202CA60002280F8412080F8E0
:102B10004220012280F840200022028180F84320D8
:102B200080F8442080F84520A0F882200267012226
:102B300080F87620002280F86A2080F87720B0F8AC
:102B400084208A6200224A620A6842F001020A6016
:102B5000CA6842F00202CA6060E2B0F90610B0F939
:102B6000002047F6FF73994216D0B0F87E30C9189E
:102B7000A0F87E10C388B0F880105918A0F8801013
:102B80001946B0F88230591889180180C188A0F818
:102B90007410B0F900007047B0F874108918018003
:102BA000B0F90000704730B5044681B094F8402079
:102BB000B4F96C00002A0D4646D0626A926AB4F8F5
:102BC00084309A4202D30020E08034E0E08090B369
:102BD00047F6FF7290422CD0B4F97E10A4F8801012
:102BE0002288891AA4F87C1009B2B4F8982091FBC5
:102BF000F2F1A4F8821094F9771001290CD1217F09
:102C000094F844208A4224BF206F90FBF1F0A4F88E
:102C10007800002084F87700B4F978002880A18A31
:102C2000484300EB80014800E17A090490FBF1F091
:102C300001E0B4F9860028802946204600F0B0FF64
:102C40002988A18001B030BD217CA1720020E080E4
:102C500028802988A18001B030BD000070B490F8B0
:102C60004020416A002A00F07A8190F87A20837D22
:102C7000C3B9846BC36B2469056B1C409C42446BD5
:102C80002D69866A0CBF012300232540A542C56A31
:102C900036690CBF012400242E40AE4214BF00252B
:102CA000012519E0046B436B2469856B1C409C4231
:102CB000C46B2D69866A0CBF012300232540A54201
:102CC000C56A36690CBF012400242E40AE420CBFF9
:102CD0000125002583F00103640044EA83032B43AC
:102CE00080F87A3090F87A305B1E052B00F29180E4
:102CF000DFE803F016472F790360042A08BF01229A
:102D000000F08180012A40F087804FF0FF3280F888
:102D10007620028B02F52852AA32A0F87E207BE0B2
:102D2000052A09D1012280F87620028B02F528526B
:102D3000AA32A0F87E206FE0032A6DD14FF0FF3257
:102D400080F87620028B02F5AA425532A0F87E2048
:102D500062E0012A08D180F87620028B02F5AA42AF
:102D60005532A0F87E2057E0022A55D14FF0FF32AD
:102D700080F87620028B02F5FE42FF32A0F87E201A
:102D80004AE0032A09D1012280F87620028B02F55D
:102D9000FE42FF32A0F87E203EE0062A3CD14FF0F2
:102DA000FF3280F8762045F25553028BD21AA0F8F4
:102DB0007E2031E0022A09D1012280F8762045F2F6
:102DC0005553028BD21AA0F87E2025E0042A23D185
:102DD0004FF0FF3280F8762042F6AA23028BD21AF7
:102DE000A0F87E2018E0062A09D1012280F876207A
:102DF00042F6AA23028BD21AA0F87E200CE0052A04
:102E00000AD14FF0FF3280F87620028BA0F87E20A6
:102E100002E0002280F8402090F8432042B990F868
:102E20004320521C80F84320486B70BC0020704740
:102E300090F84420037F9A4204D290F84420521C18
:102E400080F844204B6B8A6A90F8454090F84550D2
:102E50009BB292B203EB0444ADB1521C92B290F813
:102E6000423062431BB1002180F8421022E08B6A9D
:102E7000B0F88440A3421DD28B6A5B1C8B62012197
:102E800080F8421016E090F841502DB1911C89B2A3
:102E900001FB04F200210BE0521C92B26243B3F535
:102EA000AA4F07DA8B6A2BB18B6A5B1E8B620121FA
:102EB00080F84110D0F890108A4205D247F6FF7191
:102EC000A0F86C10002145E090F86A30016F00EB2B
:102ED0004303B3F94630C91A0167D0F88C3090F833
:102EE0006A109A4200EB410103D30022A1F8462068
:102EF0001BE0D0F88830B3FBF2F2A1F8462090F83E
:102F00006A1090F9763000EB4101B1F8462012FBCF
:102F100003F2A1F8462090F86A20016F00EB42020C
:102F2000B2F9462001FA82F1016790F86A10027F37
:102F300000EB4101B1F84610A0F86C1090F86A104F
:102F4000491C80F86A10C9B2914204BF002180F880
:102F50006A10012180F87710002180F845100020C8
:102F600070BC704710B5044694F84010606A0029A0
:102F700052D094F84510491C84F84510806AB4F882
:102F80009410B4F896205143401C4FF47A72504389
:102F9000B1FBF0F094F8451080B281423CD30020A0
:102FA000E080204600F03AF8002084F8450094F8CC
:102FB0001C1039B304EB40020021A2F84610401C5B
:102FC000217FC0B288421DD204EB40020021A2F84A
:102FD0004610401C217FC0B2884213D204EB40024D
:102FE0000021A2F84610401C217FC0B2884209D2BD
:102FF00004EB40020021A2F84610401C217FC0B221
:103000008842D7D3002084F84400A4F86C00012043
:1030100084F86A0000202067002010BD10B4817D74
:10302000C1B9826BC16B1269036B0A408A42426B61
:103030001B69846A0CBF0121002113409342C36ABB
:1030400024690CBF012200221C409C4214BF0023B3
:10305000012319E0026B416B1269836B0A408A42BB
:10306000C26B1B69846A0CBF01210021134093428B
:10307000C36A24690CBF012200221C409C420CBF81
:103080000123002381F00101520042EA810119432A
:1030900080F87A1090F87A20B0F90010521E052AB4
:1030A00040D8DFE802F00D211735032B018B01F525
:1030B000A851553101800188A0F87E1010BC7047DE
:1030C000018B01F57C51FF3101800188A0F87E1051
:1030D00010BC7047018B01F5D441AA3101800188F1
:1030E000A0F87E1010BC7047018B46F6AA22891A00
:1030F00001800188A0F87E1010BC7047018B43F658
:10310000FF72891A01800188A0F87E1010BC7047F8
:10311000018B41F25552891A01800188A0F87E1076
:1031200010BC7047002280F8402001800188A0F880
:103130007E1010BC70470161426190F82A10017046
:10314000B0F92C1009044160B0F92E100904816017
:1031500000214180C16081617047406970470178FA
:10316000012903D100690021FFF708BC70474068BE
:10317000C11300EB11400014704701700021C160C1
:103180007047F0B41346057801220C46B5B986683D
:10319000F71306EB1746C78C3614A742B0F9287010
:1031A000B8BF0022B94219DB52B3DBB92104012DAB
:1031B0000CBF416081600021C16020E04668C78B80
:1031C0003614A742A4BFB0F92470B94206DB078CBD
:1031D000BC42BCBFB0F922708F42E6DAF0BC0022DC
:1031E000104670474180818B59434FF47A73B1FB8D
:1031F000F3F1491CC160A31B1B0493FBF1F1816136
:10320000F0BC1046704770B504462078E16800288D
:103210000CBFA5686568022903D3A2695519491E28
:1032200005E0012904D1B4F902100D040021E16088
:10323000E91305EB11410E1401280AD1606900F071
:10324000ACFC311A206909B2FFF7A3FB65600646A2
:103250003504A560304670BDB0F92C007047C08BB6
:103260007047B0F92400704702780021012A04BF9A
:10327000C16001210846704781B0B0F92E10ADF849
:103280000010008EADF80200009801B0704710B534
:103290000446606900F081FC0004606010BD00001D
:1032A00010B5044604F10C0000F0AAFA84F83400CA
:1032B0004FEA0400BDE81040418B828B038B12FA69
:1032C00081F149080022FBB100EB4203521CD98373
:1032D00092B2038B9A4217D200EB4203521CD9835D
:1032E00092B2038B9A420FD200EB4203521CD98355
:1032F00092B2038B9A4207D200EB4203521CD9834D
:1033000092B2038B9A42DFD38180C180002180F882
:10331000331070472DE9F043002681B004464FF08A
:103320000009B04637464FF6FF7507E0B04298BF38
:103330000646814500D281467F1C8044208BF9B22D
:1033400081420AD294F8340000F0BEFAA842F5D0C7
:10335000FFB2002FEAD10646EDE7A8EB0901891B71
:10336000801EB1FBF0F080B2A8423FD094F8331039
:1033700004EB41010022C8830021238B43B3D2B266
:1033800004EB4203521CDB8B11FA83F1238BD5B281
:103390009D421DD2D2B204EB4205521CED8B11FAB4
:1033A00085F1D5B29D4213D2D2B204EB4205521C34
:1033B000ED8B11FA85F1D5B29D4209D2D2B204EB60
:1033C0004205521CED8B11FA85F1D5B29D42D6D340
:1033D000B1FBF3F1E180A080218B94F83300491E0A
:1033E0008842B4BF401C002084F83300E088618B21
:1033F000814238BF022004D3A18B884234BF04200D
:103400000020208101B02089BDE8F08310B504467A
:10341000207838B9201D00F0F3F984F82600002048
:10342000208210BD0020E082608A208210BD10B58D
:1034300004462078E8B994F8260000F045FA4FF6E3
:10344000FF71884207D0218B238A4A1E03FB0200AA
:10345000B0FBF1F02082208A618B814238BF0820C6
:1034600008D3A18B88422CBFE08A0020E082E08A4A
:1034700010BD0020E082E08A10BD017871B9018A98
:10348000026A891AB0F91E20808C5143CA1301EBDD
:103490001241091411FA80F000B27047808A00B21C
:1034A000704700000021416041808160C1600121BE
:1034B000016170474268104770B481B002B481B0B6
:1034C000B0F84420BDF90410B0F860404A43BDF99B
:1034D0000610614349424D005119AA1A01EBD171FE
:1034E00002EBD27249105310A408002938D5002BE2
:1034F00012D5CD1A6E1405EB963504EBA5441D14B8
:1035000003EBD5330D1401EBD531A4EB6145816A92
:10351000042204EB63435BE02A1405EBD232561419
:10352000012D0EDAE91A4D1401EB953104EBA1449B
:10353000191403EBD13104EB6143416A03229D1B53
:1035400046E04B1B5D1403EB953304EBA3440B14D3
:1035500001EBD331A4EB6145016A0222731937E014
:10356000002B12D4CD1A6E1405EB963504EBA5444E
:103570001D1403EBD5330D1401EBD531A4EB6145DC
:10358000C169012204EB634322E02A1405EBD23225
:103590005614012D0EDA4B1B5D1403EB953304EB2F
:1035A000A3440B1401EBD331A4EB6145C16A05229E
:1035B00073190DE0E91A4D1401EB953104EBA144A8
:1035C000191403EBD13104EB6143816900229D1B87
:1035D000A0F84620A0F84840A0F84A30A0F84C5087
:1035E000B0F85C20012A1FD1B0F95640B0F848204D
:1035F000B0F85E30012CACBF9A18D21AA0F848205F
:10360000B0F95840B0F84A20012CACBF9A18D21A31
:10361000A0F84A20B0F95A40B0F84C20012CACBFB9
:103620009A18D21AA0F84C2003B070BC08478168E1
:10363000084730B581B00446002539B9A1688847EC
:10364000B4F86200A4F8520070B909E001290BD166
:10365000B4F8520038B1401EA4F8520080B218B934
:103660002169204688470125284601B030BD016BFD
:10367000084701604260002183600173C1810182BB
:10368000C1820176704701230373C181C282037630
:1036900043767047018202230121017603730021E2
:1036A000C2824176704702B403210173BDF8001055
:1036B0004182BDF80210818201B001210176002112
:1036C0004176704710B5044603212068FFF7BCF827
:1036D00008B10121217610BD00680721FFF7B4B8B9
:1036E0000068FFF727B900680121FFF7ADB810B5F2
:1036F000040031D0207E01282ED1217B0020012919
:1037000004D010D303291CD010D30CE0A16881F899
:10371000240001216068FFF730FDE28AB4F90E1041
:103720006068FFF72EFDA8B1022014E0A16881F8BF
:10373000240000216068FFF720FDE28AB4F9101030
:10374000EEE7A068012180F82410D4F8121001617E
:10375000022000E00320207610BD0068FFF7E8B8E3
:10376000407E7047027B0021012A08BFB0F90E108D
:10377000084670474068FFF777BD00B5406881B0E4
:10378000FFF7EBFC01B05DF804EB00F006BA40680F
:10379000FFF7EDBC806881B00068009001B0704711
:1037A0008068406881B0009001B070478068C06850
:1037B00081B0009001B070478068006981B00090CE
:1037C00001B070478068D0F8160081B0009001B059
:1037D00070478068D0F81A0081B0009001B070473F
:1037E0008068B0F91E00704780684182818270470E
:1037F00010B504466068FFF73FFDA168086110BD81
:10380000F0B401460C790A685D4DFF205FF00003BB
:1038100005EB8306766A16B90528A8BF18463779DE
:10382000A74201BF36689642184604235B1CDBB2F0
:10383000042BEDDB0246042A44DA05EB82035962CD
:10384000002345F832300A689368DB070ED493688A
:103850004C4C234043F0004393609368DB0FFCD152
:103860009368494C234043F001039360136B1B0999
:103870001B0113630B791C460A2C08D201259D40BD
:1038800045EA836304EB440443EA04530AE0012558
:103890009D400A3C45EA836304EB440443EA045335
:1038A00043F00073DC0D143204F004048968A2189C
:1038B0001B0D03F01F03146807259D40AC4399407E
:1038C00021431160F0BC704730B42D4A02EB8001F7
:1038D0000124496A0B799C400A2B44EA836404D290
:1038E00003EB430344EA035306E00A3B03EB4303C1
:1038F00044EA035343F000730C6854F8305F1B0D27
:1039000025F4F86503F4F8632B43236024320B6835
:103910001D4D1C6C9C682C4044F004049C6052F8C3
:103920002000026812685207FBD50868006C30BCA2
:1039300080B2704730B5124C94F82100012881B054
:103940001BD194F82000FFF7BFFF022194F820302C
:1039500084F8211060841D4654F8351069B10021A7
:1039600084F8211001B004EBC5014A6801461846ED
:1039700054F83530BDE83040184701B030BD000084
:103980000C090020C0FFFF3FC0FFFF7F2DE9F0437F
:103990000446DFF8E8803A48DFF8E890C8F8CC0041
:1039A00083B099EC0C0B0D4616461F4680EC0C0BB1
:1039B000009400F041FBD8F8CC0000F06EFED8F87F
:1039C000CC002322002100F072FED8F8CC00242283
:1039D000012100F06CFEC8F8D08099EC0C0BDFF8E8
:1039E000A89088EC0C0B484600F07AFE0A98274B0A
:1039F000274A02904946D8F8CC000190254800900B
:103A0000D8F8D00000F08EFFD8F8D00000943B46E4
:103A10003246294600F010FB03B0BDE8F0831E4893
:103A2000018811B10188491E01804188022902D311
:103A30004188491E41808188022902D38188491E1C
:103A40008180704730B50D4D0446D5F8CC0081B06B
:103A500000F0FBFAA04206D1D5F8CC0001B0BDE8D9
:103A6000304000F01FBE01B030BD0B49002048803F
:103A7000704709494F204880704700001006002019
:103A800054040020FC040020000000206D480008C1
:103A900091480008114900080406002000B581B0D3
:103AA00001F0C2F920B901B05DF804EB01F0B4B93E
:103AB00001B05DF804EB01F0B3B92DE9F041044623
:103AC000D4F80C01B0F90C50B0F90E60B0F91670D2
:103AD000B0F91880D4F8100101F0ACF915FB07F12A
:103AE00016FB0811CA1301EB1241D4F80821504308
:103AF0004FF41672091490FBF2F0484300EB4001BA
:103B000048000A2190FBF1F0C11300EB11400114B1
:103B10002046BDE8F04100F00DB8000010B50446A5
:103B20004FF4807100F084FA0020A4F80001A4F89A
:103B3000020110BD30B4B0F8003120F8131000229B
:103B4000B0F80031A0F80231B0F800315B1CA0F8E9
:103B500000319BB2802B28BFA0F80021034620240F
:103B600033F9025B521933F9025B521933F9025BE4
:103B7000521933F9025B5219641EF1D1931102EB11
:103B80005362D211A0F80421084630BC7047B0F946
:103B900004017047B0F900007047B0F904007047A5
:103BA000012270B40024095F8689037C857A00298C
:103BB00048BF494289B28E42C68938BF0124B1420A
:103BC000B0F90810468A38BF0124002948BF49428D
:103BD00089B28E4200D31CB19D4204DA6D1C02E012
:103BE0009D42B8BF0025EDB29D4208BF00228572FC
:103BF000104670BC7047B0F90410B0F90C00C1EB6E
:103C0000C13191FBF0F000B27047000001B481B007
:103C10004249BDF90400ADF8000044F6E61210FB7D
:103C200001F0BDF9061011FB02F1A0EB4100C01339
:103C300000F30F00ADF8020010F5004F04BF384844
:103C4000ADF80200009802B0704731B4A1F5004110
:103C50000904890D11F4407381B012D0B3F5807F4F
:103C600006D0B3F5007F25D0B3F5407F16D02BE00A
:103C70000FF26412C1F1FF00C0B232F910004042ED
:103C80001FE00FF25412C8B2C1F1FF01C9B232F9FC
:103C9000100032F9111040424A4215E00FF238127A
:103CA000C1F1FF00C0B2C9B232F9100032F91110EF
:103CB0004A4209E00FF22012C8B232F91000C1F1F5
:103CC000FF01C9B232F91120BDF90430BDF9061067
:103CD00012B200B212FB03F400FB1144E41304F32C
:103CE0000F04ADF8004012FB01F1BDF900500D4C7E
:103CF000A54204BF0A4DADF8005010FB0310C013DD
:103D000000F30F00ADF80200A04204BF0448ADF874
:103D10000200009802B030BC704700001AB6FFFFE6
:103D20000180FFFF0080FFFFA1F50041090401B4FD
:103D3000890D11F4407381B012D0B3F5807F06D0A5
:103D4000B3F5007F25D0B3F5407F16D02BE00FF2FE
:103D50008802C1F1FF00C0B232F9100040421FE0FA
:103D60000FF27402C8B2C1F1FF01C9B232F91000FA
:103D700032F9111040424A4215E00FF25C02C1F1E3
:103D8000FF00C0B2C9B232F9100032F911104A4234
:103D900009E00FF24402C8B232F91000C1F1FF018C
:103DA000C9B232F91120BDF90610BDF9043000B2D4
:103DB00012B210FB01FC12FB01F100FB131012FB0D
:103DC00003CCC0134FEAEC3CADF80200ADF800C0E4
:103DD000009802B0704700000000C90092015B0229
:103DE0002403ED03B6047F0548061107D907A2088E
:103DF0006A09330AFB0AC40B8C0C540D1C0EE30E2B
:103E0000AB0F72103A110112C8128F1355141C1502
:103E1000E215A8166E173318F918BE19821A471B37
:103E20000B1CCF1C931D571E1A1FDD1F9F206121E5
:103E30002322E522A62367242825E825A82667272C
:103E40002628E528A329612A1F2BDC2B992C552D28
:103E5000112ECC2E872F4130FB30B5316E322633F8
:103E6000DF3396344D350436BA366F372438D938B7
:103E70008C39403AF23AA53B563C073DB83D683E86
:103E8000173FC53F73402141CE417A422543D0437D
:103E90007A442445CD4575461C47C34769480F49B8
:103EA000B449584AFB4A9D4B3F4CE04C814D204E53
:103EB000BF4E5D4FFB4F97503351CE516852025366
:103EC0009B533254C9546055F5558A561D57B05707
:103ED0004258D3586459F359825A0F5B9C5B285C53
:103EE000B35C3E5DC75D4F5ED75E5D5FE35F68605C
:103EF000EB606E61F0617162F1627063EE636C643D
:103F0000E8646365DD655666CF664667BC67326800
:103F1000A66819698B69FD696D6ADC6A4A6BB76BC3
:103F2000236C8E6CF86C616DC96D306E966EFB6E95
:103F30005E6FC16F22708370E27040719D71F97184
:103F40005472AE7207735E73B5730A745F74B274A1
:103F500004755575A575F37541768D76D8762277FB
:103F60006B77B377FA773F788478C77809794A799D
:103F70008979C879057A417A7C7AB67AEE7A267B95
:103F80005C7B917BC57BF87B297C597C887CB67CEB
:103F9000E37C0E7D397D627D897DB07DD57DFA7DA6
:103FA0001D7E3E7E5F7E7E7E9C7EB97ED57EEF7ED0
:103FB000097F217F377F4D7F617F747F867F977F69
:103FC000A67FB47FC17FCD7FD87FE17FE97FF07F7F
:103FD000F57FF97FFD7FFE7F02B481B00091BDF9CE
:103FE0000420BDF90610B0F800C012FB02F311FB6B
:103FF00001330CFB0CFC9C4516D290F8B0C01B0E94
:10400000A3EB0C03DBB200EB430040884243484380
:104010009313811302EB534200EB5140D213C013B0
:10402000ADF80020ADF80200009802B07047000023
:10403000002200F005BF000001770262002180F835
:104040002C10436200998162704790F82C007047F1
:1040500070B51646436A046A90F82C2053F8223053
:1040600054F8224082B00125E1B1032923D005296B
:1040700034D0062935D0072936D0082937D0092968
:104080003CD00A293DD00B293ED00C293FD00D2928
:104090004AD00E294FD00F2954D0412959D05B293D
:1040A0005ED068E0017FF6B28E4264D280F82C6068
:1040B000284602B070BDF0B238B92046FFF790FB39
:1040C000014600222046FFF7E5FAF6B2012E53D151
:1040D0002046FFF75CFB0022014646E0186831B23B
:1040E00024E0186831B228E0186831B22CE020468C
:1040F000FFF762FB0090ADF800600EE0586831B247
:1041000014E0586831B218E0586831B21CE020461B
:10411000FFF752FB0090ADF8026020460099FFF7D0
:10412000C2FA284602B070BD986831B2FEF71CFC96
:10413000284602B070BD986831B2FEF717FC2846D9
:1041400002B070BD986831B2FEF71EFC284602B07E
:1041500070BD31B22046FFF747FB284602B070BD64
:10416000062096FBF0F1002209B22046FFF78BFAF9
:10417000284602B070BD0025284602B070BD000080
:10418000024630B5506A92F82C4050F82430106A3C
:1041900050F82450812981B04FF0FF3000F2D181D6
:1041A000DFE811F0820085008B00910097009900F4
:1041B000A100A900AB00B300B500B700B900C10071
:1041C000C700CD00CF01CF01CF01CF01CF01CF017B
:1041D000CF01CF01CF01D300D900DF00E500EC0013
:1041E000F700FF000701CF010F0115011D01250197
:1041F0002D01FF00070135013D0145014D0155012C
:104200005D0165017C01CF01CF01CF01CF01CF015D
:10421000CF01CF01CF01CF01CF01CF01CF0193015A
:104220009801A101A901B900CF01CF01CF01CF01B0
:10423000CF01CF01CF01CF01CF01CF01CF01CF01FE
:10424000CF01CF01CF01CF01CF01CF01CF01CF01EE
:10425000CF01CF01CF01CF01CF01B101CF01CF01FC
:10426000CF01CF01CF01CF01CF01CF01CF01CF01CE
:10427000CF01CF01CF01CF01CF01CF01CF01CF01BE
:104280009B00A300C501CF01C801CB01CF01CF0125
:10429000CF01CF01CF01CF01CF01CF01CF01CF019E
:1042A000CF01CF01CF01CE01204601B030BD01B01A
:1042B000BDE83040986AFEF748BB01B0BDE8304029
:1042C000986AFEF735BB284601B0BDE83040FFF7DD
:1042D00047BA284624E1186826E0186801B0BDE80E
:1042E0003040FEF74DBB186824E0186801B0BDE807
:1042F0003040FEF747BB186822E02846FFF75CFA1B
:104300000090BDF9000001B030BD58680CE058685D
:1043100010E0586814E02846FFF74EFA0090BDF907
:10432000020001B030BD986801B0BDE83040FEF732
:104330001FBB986801B0BDE83040FEF71CBB986811
:1043400001B0BDE83040FEF721BB01B0BDE8304010
:10435000186B00F06FBD01B0BDE83040D86AFFF7C0
:104360008CB801B0BDE83040D86BFFF710BC936843
:104370008320190000F0E580002105E09368832088
:10438000190000F0DE80012101B0BDE83040104688
:1043900018472846FFF7F1F900EB4001480001B04B
:1043A00030BD2846FFF702FA0090BDF9000001B0C9
:1043B00030BD2846FFF7FAF90090BDF9020001B0C0
:1043C00030BD01B0BDE83040586900F08EBD2846D0
:1043D000FFF7E0F90090BDF9000001B030BD2846BC
:1043E000FFF7D8F90090BDF9020001B030BD2846B2
:1043F000FFF7D6F90090BDF9000001B030BD2846A6
:10440000FFF7CEF90090BDF9020001B030BD28469B
:10441000FFF7D2F90090BDF9000001B030BD284689
:10442000FFF7CAF90090BDF9020001B030BD28467F
:10443000FFF7C8F90090BDF9000001B030BD284673
:10444000FFF7C0F90090BDF9020001B030BD284669
:10445000FFF7BFF90090BDF9000001B030BD28465C
:10446000FFF7B7F90090BDF9020001B030BD916AC5
:1044700051F824200021140F022C14BF012C99693B
:10448000C2F30362022A14BF012AD969002958D055
:1044900001B0BDE830400846FFF77CBB916A51F897
:1044A00024200021140F022C14BF012C9969C2F39F
:1044B0000362022A14BF012AD969002941D001B040
:1044C000BDE830400846FFF796BB1369180037D0A7
:1044D000002103E01369180032D0012101B0BDE8CA
:1044E000304010461847586AFEF7B9FE00EB40010D
:1044F000480001B030BD586AFEF7B3FE00EB400142
:10450000480001B030BD2846FFF72AF901282846A7
:1045100006D1FFF727F900EB4001480001B030BD9C
:10452000FFF735F900EB4001480001B030BD064807
:1045300001B030BD012001B030BD022001B030BD5E
:10454000002001B030BD00007A84A63430B5026A84
:1045500090F82C000124491E52F820500D2981B0FA
:1045600039D8DFE801F007090B393916262C323823
:1045700038383809284612E0284615E02846FFF763
:10458000ECF8062828D12846FFF7F4F8204601B0B9
:1045900030BD2846FFF7E1F80028284604D1FFF790
:1045A00091F8204601B030BDFFF796F8204601B0E3
:1045B00030BD2846FFF794F8204601B030BD2846AC
:1045C000FFF791F8204601B030BD2846FFF710F9FB
:1045D000204601B030BD0024204601B030BD00B5FA
:1045E000062391FBF3F1036A90F82C0053F82000A6
:1045F00081B009B2FFF747F8012001B000BD2DE9F5
:10460000F0418846416A90F82C0051F82000456935
:1046100016461F46012495B14146284600F051FC3C
:1046200030804146284600F052FC388041462846FA
:1046300000F054FC069908802046BDE8F081002473
:104640002046BDE8F08170B50C46416A90F82C0018
:1046500051F8200046691D462146304600F01FFCF7
:104660002A462146304600F020FCBDF910202146A4
:10467000304600F020FC012070BD82B0ADF8001083
:10468000ADF80220026A90F82C00009952F8200040
:1046900002B0FFF708B80020704741690A0018BF50
:1046A0000847704781690A0018BF0847704710B46F
:1046B00043681C0081B002D001B010BC184701B0A3
:1046C00010BC7047024610B4936883201C0081B070
:1046D00003D001B010BC1046184701B010BC7047A1
:1046E00000F006BC30B5054681B095F81C010FF20C
:1046F000282400286BD095F81D0110B101280ED098
:1047000017E0288A0FF21424688285F8991001B006
:1047100095F81D01401C85F81D01204630BD95F817
:104720001D0185F89A10401C85F81D0101B0204636
:1047300030BD95F89A20921C90420ADA401901B0D7
:1047400080F8991095F81D01401C85F81D01204640
:1047500030BD0020688285F81B11D5F820010FF2CA
:10476000C014016821F020010160002085F81C01BF
:1047700005F1990000F0D8FB95F81B1188420BD188
:1047800095F89A3095F89910286805F19B02AD6864
:10479000A847204601B030BD95F89700B8B9FF2072
:1047A0002875012068750A20A87505F1140000F02D
:1047B000BBFB85F89600002085F89800012085F85D
:1047C0009700D5F82001016841F080010160204682
:1047D00001B030BD014691F8970040B391F89800C0
:1047E00010B1012802D003E0087D09E0487D07E010
:1047F0004A7D921C9042BABF4018007D91F8960005
:10480000D1F8202110854B7D91F898009B1C98428F
:1048100003DA401C81F898007047106820F080008F
:104820001060002081F897000868496808477047C1
:1048300010B5044694F89700B8B9FF202075012000
:1048400060750820A07504F1140000F06DFB84F879
:104850009600002084F89800012084F89700D4F88E
:104860002001016841F08001016010BD90F81C1129
:1048700061B980F81D11012180F81C11D0F82001C8
:10488000016841F02001016002207047012070475B
:1048900030B5044681B094F89700B0BB04F116001F
:1048A00021756375E3B113F0030105D012F8015BC4
:1048B00000F8015B491EF9D1990811D012F8013BAB
:1048C00000F8013B491E12F8013B00F8013B12F8C9
:1048D000013B00F8013B12F8013B00F8013BEDD130
:1048E00004F1140000F020FB84F89600002084F806
:1048F0009800012084F89700D4F82001016841F065
:1049000080010160022001B030BD012001B030BD46
:10491000002180F81C117047000000000100000019
:104920000200000070B5044682B0084620631546B8
:1049300007990FF25D02C4F8C4101E4608990FF2E1
:104940006D03C4F8C0100FF22D010091214600F054
:10495000E4FA6563A6630698E063E16B206B884721
:10496000802084F8C80002B0206BA16BBDE87040C5
:104970000847000010B50446206BE16B8847802093
:1049800084F8C800A16B206BBDE810400847000008
:1049900010B50446206BE16B8847802084F8C8007E
:1049A000A16B206BBDE81040084700002DE9F041E5
:1049B00004460F4678098AB015461E461CD0A0F161
:1049C0000108424600212046FFF742FB58B90B2060
:1049D0008DF80400012301AAFF21206B646BA0471E
:1049E0000AB0BDE8F081D4F8C40007F01F0718B181
:1049F00042460021FFF72CFB0C2F00F20982DFE872
:104A000017F00D000E008D001C01070207022401A3
:104A10005C0170019D01BB01CA01DB01DAE7297865
:104A200005207E298DF8040000F27680DFE801F091
:104A30004074745874646464646464646464646436
:104A40006969747464646464647474745A617474B9
:104A50007474747474747474747474747474747416
:104A60007474747474747474747474747474747406
:104A70007464747474746969697474747474746437
:104A80007474746464646464646474697474747461
:104A90007464747464647474747474747474747406
:104AA00074747474586969696969747474696900A3
:104AB0006D78D4F8C4002A460021FFF7C9FA2A46C7
:104AC00000212046FFF7C4FA00283FF483AF0023FB
:104AD0000022206B646BF021A0470AB0BDE8F08192
:104AE0006A78EEE76A780021D4F8C400FFF7DFFDAA
:104AF000EDE76A780121F7E76878AA7800EB0222EF
:104B0000DFE76878AA7800EB0220EA7800EB024041
:104B10002A7900EB0262D4E7022059E729780320C2
:104B200082298DF804003FF655AFDFE801F0437AA3
:104B300043437A6E6E6E6E6E6E6E6E6E6E6E6E6EDF
:104B40006E6E6E6E6E6E6E6E6E6E4F5D7A6E6E6EA9
:104B50004342424242424242424242424242424234
:104B60004242424242424242424242424242426EF9
:104B7000424242427A7A7A6E6E6E6E437A6E6E6E00
:104B80006E6E6E6E6E6E6E6E437A426E6E6E6E6E90
:104B900042426E6E43437A7A7A7A7A436E6E7A42F2
:104BA0006E6E437A7A7A7A7A7A7A7A7A7A7A434223
:104BB00043000FE72046FFF7E3FA10F1010F0090E2
:104BC0003FF408AF012300AAF02106E7D4F8C4009F
:104BD00000283FF4FFAE0021FFF774FD8DF80000C0
:104BE000012300AAF021F8E6D4F8C40000283FF41D
:104BF000F1AE0121FFF766FD8DF80000012300AA48
:104C0000206B656BF021A84761E72046FFF7B8FAF3
:104C100010F1010F00903FF4DDAE022300AAF02155
:104C2000DBE62046FFF7ACFA10F1010F00903FF4ED
:104C3000D1AE042300AAF021CFE6297807208DF811
:104C400004002046FFF782FC3EE702A80021002274
:104C50000B460D462EC02EC0D4F8C0201278092A6B
:104C600002A817D0C2700121D4F8C0208A5C092A9A
:104C700010D002ABCB18491CDA70C9B2D4F8C020EE
:104C80008A5C092A06D002ABCB18491CC9B21D297F
:104C9000DA70E9DBD4F8C0208A18202352798DF825
:104CA0000820D4F8C0208A18D2794270D4F8C020E5
:104CB000891802AA497A8170A2E72879697900EBFC
:104CC000012269782878090251FA80F0A97800EB6E
:104CD0000140E97800EB016192B22046FFF77FFCCA
:104CE000F2E60DF1060000900DF10A03297802AA00
:104CF0002046FFF784FCBDF90A0000EB40014800A4
:104D00008DF80C0003A902124A7008230214001641
:104D1000C8708A7003AABDF806000871BDF90600C4
:104D200000124871BDF808008871BDF80800000A3B
:104D3000C871F021206B656BA8474BE66879A979AB
:104D400000EB012000B20090A978687800EB012008
:104D5000E97800EB0140297900EB0160062190FB26
:104D6000F1F3E879297A00EB012229781BB292B29B
:104D70002046FFF768FCA7E6A878E97800EB012257
:104D800069782878090251FA80F112B209B22046F6
:104D9000FFF773FC9BE602950C208DF804008DF85C
:104DA0000C6002A81B4D2946FFF775FC00283FF454
:104DB00011AE2B792A688CE6002002A9D4F8C02015
:104DC000825CD2B14254401CD4F8C020C0B2825C94
:104DD0009AB14254401CD4F8C020C0B2825C002A70
:104DE0000BD04254401CD4F8C020C0B2825C22B127
:104DF0004254401CC0B22028E0DB202805DAC0F174
:104E0000200102AA8018FFF713F9202302AAF7E66F
:104E10000120DDE54009002005480068FEF752BC8E
:104E200003480068FEF758BC01480068FEF795BCCF
:104E3000EC050020C18840884843000C7047000002
:104E4000401810F0030308D0C91A1FD3DB0748BF6E
:104E500000F8012D28BF20F8022D130030B41446AD
:104E60001546103928BF20E93C00FAD8490728BF69
:104E700020E90C0048BF40F8042D890028BF20F825
:104E8000022D48BF00F8012D30BC7047C91818BF6B
:104E900000F8012DCB0728BF00F8012D704701EB6A
:104EA000410300EB83008281704701EB410300EB7B
:104EB0008300C281704701EB410300EB8300028253
:104EC000704701EB410200EB82008089704701EBE3
:104ED000410200EB8200B0F90E00704701EB410285
:104EE00000EB8200B0F91000704790F8480070475E
:104EF000002141820175417580F8961080F8971065
:104F000080F8981080F8991080F89A1080F81B119A
:104F100080F81C1180F81D11704720B101604260BB
:104F200083600099C1607047002198B3427801788E
:104F300052FA81F189B2002352B31A185B1C92789D
:104F4000DBB251FA82F14278934289B220D203EB6C
:104F5000000C5B1C9CF802C0DBB251FA8CF193424E
:104F600089B215D203EB000C5B1C9CF802C0DBB2CB
:104F700051FA8CF1934289B20AD203EB000C5B1C0C
:104F80009CF802C0DBB251FA8CF1934289B2D4D3BF
:104F900001EB1121C8B2704730B5040081B008BFE1
:104FA00001204BD094F83D0020B984F83C00204605
:104FB000FCF717FE022084F83D00201D2168DFF871
:104FC0002C210B68914218BFB1F1804F01BF23F033
:104FD000700345682B4391420ED0B1F1804F1CBF46
:104FE000DFF80C51A94207D0DFF80851A9421CBFD5
:104FF000DFF80451A94203D1C56823F440732B4361
:10500000456923F080032B430B6091428368CB6298
:105010001CBFDFF8DC20914203688B6207D0DFF809
:10502000D42091421CBFDFF8D020914201D1006909
:1050300008630120486184F83D00002001B030BDC4
:1050400030B5040081B008BF01204BD094F83D007A
:1050500020B984F83C00204600F046F8022084F88D
:105060003D00201D2168DFF884200B68914218BFA5
:10507000B1F1804F01BF23F0700345682B4391428B
:105080000ED0B1F1804F1CBFDFF86450A94207D0A9
:10509000DFF86050A9421CBFDFF85C50A94203D181
:1050A000C56823F440732B43456923F080032B43E9
:1050B0000B6091428368CB621CBFDFF834209142C1
:1050C00003688B6207D0DFF82C2091421CBFDFF809
:1050D0002820914201D1006908630120486184F8C9
:1050E0003D00002001B030BD70470000002C0140A1
:1050F00000400140004401400048014030B490F8B5
:105100003C20012A08BF022000F0C580012280F85F
:105110003C20022280F83D20DFF8D84402689368E2
:10512000234093600A68002A00F09280102A00F061
:105130009680202A00F09A80302A00F09E80402A33
:105140006CD0502A35D0602A4DD0702A0CD0B2F5E0
:10515000805F03D0B2F5005F1AD095E00168DFF8F8
:1051600090348A681A408EE0CA684B68046889687F
:10517000A56825F47F452943194341EA0221A1602E
:10518000DFF8743401688A681A4042F077027AE0E6
:10519000CA684B6804688968A56825F47F45294377
:1051A000194341EA0221A16001688A6842F4804201
:1051B00069E0CA684B68016818318C688D686D08B1
:1051C0006D008D600D6825F0F00545EA02120A6059
:1051D00024F00A021A438A6001688A6822F0700289
:1051E00042F057024FE0CA684B68016818318C687A
:1051F00024F010048C600C688D6824F4704444EA38
:1052000002320A6025F0A00242EA03128A600168B5
:105210008A6822F0700242F0670234E0CA684B6884
:10522000016818318C688D686D086D008D600D689F
:1052300025F0F00545EA02120A6024F00A021A433A
:105240008A6001688A6822F0700242F047021AE020
:1052500001688A6822F0700242F0070213E00168D8
:105260008A6822F0700242F017020CE001688A6836
:1052700022F0700242F0270205E001688A6822F0FD
:10528000700242F037028A60012180F83D1000214F
:1052900080F83C10002030BC7047000010B5044678
:1052A00094F83C00012801D1022010BD012084F8AF
:1052B0003C00022084F83D00204600F01BF92068E5
:1052C000C16821F04001C1602068C16821F48041BB
:1052D000C160012084F83D00002084F83C0010BD2E
:1052E0006E4A0368904218BFB0F1804F01BF23F0AF
:1052F0007003D1F804C04CEA030390420ED0B0F121
:10530000804F1CBFDFF8F4C2604507D0DFF8F0C261
:1053100060451CBFDFF8ECC2604505D1D1F80CC078
:1053200023F440734CEA0303D1F814C023F0800344
:105330004CEA0303036090428B68C3621CBFAF4A10
:1053400090420B68836205D0AD4A90421CBFAD4AC3
:10535000904201D10969016301214161704770B434
:10536000026AA94D520852000262046A42688369C7
:105370002B400D682B438D6824F002042C43474DCD
:10538000A8421CBF9D4EB04205D09D4EB0421CBFEE
:105390009C4EB0420CD1CE6824F008043443A8429D
:1053A0001FBF964DA842964DA84224F0040402D097
:1053B000944DA84205D14D6922F440722A438D696B
:1053C0002A434260836149684163046270BC70474C
:1053D00070B4026A8D4D22F010020262046A4268C3
:1053E00083692B400D6843EA05238D6824F020046F
:1053F00044EA0514294DA84207D1CD6824F0800461
:1054000044EA051424F0400407E07C4DA8421FBF85
:105410007B4DA8427B4DA84206D14D698E6922F48E
:105420004062354342EA8502426083614968816394
:10543000046270BC704770B4026A734D22F48072CB
:105440000262046A4268C3692B400D682B438D6871
:1054500024F4007444EA0524104DA84207D1CD6815
:1054600024F4006444EA052424F4806407E0634DD6
:10547000A8421FBF624DA842624DA84206D14D69A5
:105480008E6922F44052354342EA05124260C361FC
:105490004968C163046270BC70470000002C014081
:1054A00030B4026A594D22F480520262036A4268A3
:1054B000C4692C400D6844EA05248D6823F4005328
:1054C00043EA0533524DA8421CBF4C4DA84205D0BB
:1054D0004B4DA8421CBF4B4DA84204D14D6922F44C
:1054E000804242EA85124260C461496801640362F5
:1054F00030BC7047006882684B6822F070021A4323
:105500003B4B1A400B681A4382604A68402A13D00A
:10551000502A1FD0602A33D0702A44D10A698B6880
:10552000C968D0F808C02CF47F4C41EA0C0119433B
:1055300041EA022181607047026A036A5B085B00EE
:1055400003628369096923F0F00343EA0111816171
:10555000026270470A698968036AD0F820C04FEA7E
:105560005C0C4FEA4C0CC0F820C0D0F818C02CF0EE
:10557000F00C4CEA0212826123F00A02114311E09E
:105580000A698968036A23F0100303628369D0F80B
:1055900020C023F4704343EA023282612CF0A0025F
:1055A00042EA01110162704770B4046A184E64083F
:1055B00064000462B0428469056A1EBFB0F1804F86
:1055C0000E4EB04203D1A40842EA840201E044F046
:1055D00001021B0122F0F00203F0F0031A43826182
:1055E00001F00A0125F00A021143016270BC704704
:1055F000F8FFFEFF8800FEFF88FFFEFF004001402D
:1056000000440140004801408CFFFEFFFF8CFFFE7C
:10561000002C01402DE9F041040082B019D020781F
:10562000DFF89454C0075DD5686800F00C000428CA
:1056300007D0686800F00C0008280ED16868C00325
:105640000BD52868C0F3404000284BD06068002884
:1056500048D1012002B0BDE8F0816068B0F5803F1C
:1056600003D1286840F4803013E008B928680AE0C4
:10567000B0F5A02F286806D140F480202860286863
:1056800040F4803005E020F480302860286820F461
:1056900080202860E86AA168000941EA0010E862F9
:1056A000606878B1FCF7A0FB06462868C0F340406C
:1056B000C0B9FCF799FB801B6528F6D3032002B024
:1056C000BDE8F081FCF790FB06462868C0F3404037
:1056D00040B1FCF789FB801B6528F6D3032002B09C
:1056E000BDE8F081207880071AD5686810F00C0FAB
:1056F00007D0686800F00C0008282CD16868C00347
:1057000029D42868C0F3400000281CBF2069012864
:105710009FD12868616920F0F80040EAC100286044
:105720002078000752D5A069DFF89873E0B3012014
:10573000C7F88004FCF758FB0646686AC0F34000CF
:10574000002843D1FCF750FB801B0328F5D303202E
:1057500002B0BDE8F0812069DFF8687390B10120E4
:105760003860FCF741FB06462868C0F3400000287B
:10577000CFD1FCF739FB801B0328F5D3032002B0FF
:10578000BDE8F0813860FCF72FFB06462868C0F3BF
:1057900040000028C4D0FCF727FB801B0328F5D36A
:1057A000032002B0BDE8F081C7F88004FCF71CFBC1
:1057B0000646686AC0F3400040B1FCF715FB801B49
:1057C0000328F6D3032002B0BDE8F081207840071B
:1057D0006FD5E8690027C00009D4E86940F080501F
:1057E000E8610127E86900F0805000900098DFF838
:1057F000D882D8F80000C00515D4D8F8000040F4CD
:105800008070C8F80000FCF7EFFA0646D8F80000F0
:10581000C00508D4FCF7E8FA801B6528F6D30320FE
:1058200002B0BDE8F081E068012803D1286A40F0A9
:10583000010012E008B9286A09E00528286A06D1A3
:1058400040F004002862286A40F0010005E04008AA
:1058500040002862286A20F004002862E06888B1CD
:10586000FCF7C2FA064641F28938286AC0F34000C4
:10587000D0B9FCF7B9FA801B4045F6D3032002B03B
:10588000BDE8F081FCF7B0FA064641F28938286A93
:10589000C0F3400040B1FCF7A7FA801B4045F6D3A7
:1058A000032002B0BDE8F0811FB1E86920F080500C
:1058B000E861E069002846D0696801F00C01082918
:1058C0003FF4C7AE02287F4F2BD100203866FCF78B
:1058D0008BFA06462868C0F3406040B1FCF784FAB2
:1058E000801B0328F6D3032002B0BDE8F08168686E
:1058F000616A20F474100843216A0843686001203B
:105900003866FCF771FA06462868C0F34060D0B9E3
:10591000FCF76AFA801B0328F6D3032002B0BDE827
:10592000F08100203866FCF75FFA06462868C0F36D
:10593000406040B1FCF758FA801B0328F6D30320DF
:1059400002B0BDE8F081002002B0BDE8F0812DE991
:10595000F043040081B0884659D05C4E306800F0B6
:105960000700404509D23068C00848EAC0003060EE
:10597000306800F00700404549D120784E4F80073D
:1059800005D57868A16820F0F00008437860207899
:10599000C0072DD56068012803D13968C1F34041A3
:1059A00004E00228396806D1C1F3406131B9012011
:1059B00001B0BDE8F083C1F3400141B379688908C3
:1059C00040EA8100786041F28939FCF70DFA05461A
:1059D0007868616800F00C00B0EB810F08D0FCF72C
:1059E00003FA401B4845F3D3032001B0BDE8F08320
:1059F000306800F0070080450DD23068C00848EAE2
:105A0000C0003060306800F00700404503D001203E
:105A100001B0BDE8F0832078400705D57868E168DB
:105A200020F4E060084378602078000706D57868A5
:105A3000216920F4605040EAC100786000F010F85D
:105A40007A682349C2F30312515C20FA01F21B4821
:105A500002600420FCF7A2F9002001B0BDE8F08349
:105A60001C48016801F00C02082A14D10FF27002E0
:105A7000C1F38343C9039A5C806A09D50FF27003AE
:105A80000F4900F00F00C05CB1FBF0F050437047CD
:105A90001148504370470A487047084800687047EB
:105AA00006480C4A016812680C48C2F30222125CD4
:105AB00021FA02F070470000001002400C0600209E
:105AC00000127A00000042420070004000200240B4
:105AD000CC6B00080410024000093D00806D0008F6
